{
  "abi": [
    {
      "inputs": [
        {
          "internalType": "contract IERC721",
          "name": "_nftCollection",
          "type": "address"
        },
        {
          "internalType": "contract IERC20",
          "name": "_rewardsToken",
          "type": "address"
        }
      ],
      "stateMutability": "nonpayable",
      "type": "constructor"
    },
    {
      "inputs": [
        {
          "internalType": "address",
          "name": "_staker",
          "type": "address"
        }
      ],
      "name": "availableRewards",
      "outputs": [
        {
          "internalType": "uint256",
          "name": "",
          "type": "uint256"
        }
      ],
      "stateMutability": "view",
      "type": "function"
    },
    {
      "inputs": [],
      "name": "claimRewards",
      "outputs": [],
      "stateMutability": "nonpayable",
      "type": "function"
    },
    {
      "inputs": [
        {
          "internalType": "address",
          "name": "_user",
          "type": "address"
        }
      ],
      "name": "getStakedTokens",
      "outputs": [
        {
          "components": [
            {
              "internalType": "address",
              "name": "staker",
              "type": "address"
            },
            {
              "internalType": "uint256",
              "name": "tokenId",
              "type": "uint256"
            }
          ],
          "internalType": "struct ERC721Staking.StakedToken[]",
          "name": "",
          "type": "tuple[]"
        }
      ],
      "stateMutability": "view",
      "type": "function"
    },
    {
      "inputs": [],
      "name": "nftCollection",
      "outputs": [
        {
          "internalType": "contract IERC721",
          "name": "",
          "type": "address"
        }
      ],
      "stateMutability": "view",
      "type": "function"
    },
    {
      "inputs": [],
      "name": "rewardsToken",
      "outputs": [
        {
          "internalType": "contract IERC20",
          "name": "",
          "type": "address"
        }
      ],
      "stateMutability": "view",
      "type": "function"
    },
    {
      "inputs": [
        {
          "internalType": "uint256",
          "name": "_tokenId",
          "type": "uint256"
        }
      ],
      "name": "stake",
      "outputs": [],
      "stateMutability": "nonpayable",
      "type": "function"
    },
    {
      "inputs": [
        {
          "internalType": "uint256",
          "name": "",
          "type": "uint256"
        }
      ],
      "name": "stakerAddress",
      "outputs": [
        {
          "internalType": "address",
          "name": "",
          "type": "address"
        }
      ],
      "stateMutability": "view",
      "type": "function"
    },
    {
      "inputs": [
        {
          "internalType": "address",
          "name": "",
          "type": "address"
        }
      ],
      "name": "stakers",
      "outputs": [
        {
          "internalType": "uint256",
          "name": "amountStaked",
          "type": "uint256"
        },
        {
          "internalType": "uint256",
          "name": "timeOfLastUpdate",
          "type": "uint256"
        },
        {
          "internalType": "uint256",
          "name": "unclaimedRewards",
          "type": "uint256"
        }
      ],
      "stateMutability": "view",
      "type": "function"
    },
    {
      "inputs": [
        {
          "internalType": "uint256",
          "name": "_tokenId",
          "type": "uint256"
        }
      ],
      "name": "withdraw",
      "outputs": [],
      "stateMutability": "nonpayable",
      "type": "function"
    }
  ],
  "devdoc": {
    "kind": "dev",
    "methods": {},
    "version": 1
  },
  "evm": {
    "assembly": "    /* \"StakingContract.sol\":311:7543  contract ERC721Staking is ReentrancyGuard {... */\n  mstore(0x40, 0xc0)\n    /* \"StakingContract.sol\":1429:1435  100000 */\n  0x0186a0\n    /* \"StakingContract.sol\":1396:1435  uint256 private rewardsPerHour = 100000 */\n  0x01\n  sstore\n    /* \"StakingContract.sol\":612:758  constructor(IERC721 _nftCollection, IERC20 _rewardsToken) {... */\n  callvalue\n  dup1\n  iszero\n  tag_1\n  jumpi\n  0x00\n  dup1\n  revert\ntag_1:\n  pop\n  mload(0x40)\n  sub(codesize, bytecodeSize)\n  dup1\n  bytecodeSize\n  dup4\n  codecopy\n  dup2\n  add\n  0x40\n  dup2\n  swap1\n  mstore\n  tag_2\n  swap2\n  tag_3\n  jump\t// in\ntag_2:\n    /* \"@openzeppelin/contracts/security/ReentrancyGuard.sol\":1716:1717   */\n  0x01\n    /* \"@openzeppelin/contracts/security/ReentrancyGuard.sol\":1821:1828   */\n  0x00\n    /* \"@openzeppelin/contracts/security/ReentrancyGuard.sol\":1821:1843   */\n  sstore\n  sub(shl(0xa0, 0x01), 0x01)\n    /* \"StakingContract.sol\":681:711  nftCollection = _nftCollection */\n  swap2\n  dup3\n  and\n  0xa0\n  mstore\n    /* \"StakingContract.sol\":722:750  rewardsToken = _rewardsToken */\n  and\n  0x80\n  mstore\n    /* \"StakingContract.sol\":311:7543  contract ERC721Staking is ReentrancyGuard {... */\n  jump(tag_10)\n    /* \"#utility.yul\":14:154   */\ntag_9:\n  sub(shl(0xa0, 0x01), 0x01)\n    /* \"#utility.yul\":98:129   */\n  dup2\n  and\n    /* \"#utility.yul\":88:130   */\n  dup2\n  eq\n    /* \"#utility.yul\":78:148   */\n  tag_12\n  jumpi\n    /* \"#utility.yul\":144:145   */\n  0x00\n    /* \"#utility.yul\":141:142   */\n  dup1\n    /* \"#utility.yul\":134:146   */\n  revert\n    /* \"#utility.yul\":78:148   */\ntag_12:\n    /* \"#utility.yul\":14:154   */\n  pop\n  jump\t// out\n    /* \"#utility.yul\":159:592   */\ntag_3:\n    /* \"#utility.yul\":268:274   */\n  0x00\n    /* \"#utility.yul\":276:282   */\n  dup1\n    /* \"#utility.yul\":329:331   */\n  0x40\n    /* \"#utility.yul\":317:326   */\n  dup4\n    /* \"#utility.yul\":308:315   */\n  dup6\n    /* \"#utility.yul\":304:327   */\n  sub\n    /* \"#utility.yul\":300:332   */\n  slt\n    /* \"#utility.yul\":297:349   */\n  iszero\n  tag_14\n  jumpi\n    /* \"#utility.yul\":345:346   */\n  0x00\n    /* \"#utility.yul\":342:343   */\n  dup1\n    /* \"#utility.yul\":335:347   */\n  revert\n    /* \"#utility.yul\":297:349   */\ntag_14:\n    /* \"#utility.yul\":377:386   */\n  dup3\n    /* \"#utility.yul\":371:387   */\n  mload\n    /* \"#utility.yul\":396:436   */\n  tag_15\n    /* \"#utility.yul\":430:435   */\n  dup2\n    /* \"#utility.yul\":396:436   */\n  tag_9\n  jump\t// in\ntag_15:\n    /* \"#utility.yul\":505:507   */\n  0x20\n    /* \"#utility.yul\":490:508   */\n  dup5\n  add\n    /* \"#utility.yul\":484:509   */\n  mload\n    /* \"#utility.yul\":455:460   */\n  swap1\n  swap3\n  pop\n    /* \"#utility.yul\":518:560   */\n  tag_16\n    /* \"#utility.yul\":484:509   */\n  dup2\n    /* \"#utility.yul\":518:560   */\n  tag_9\n  jump\t// in\ntag_16:\n    /* \"#utility.yul\":579:586   */\n  dup1\n    /* \"#utility.yul\":569:586   */\n  swap2\n  pop\n  pop\n    /* \"#utility.yul\":159:592   */\n  swap3\n  pop\n  swap3\n  swap1\n  pop\n  jump\t// out\ntag_10:\n    /* \"StakingContract.sol\":311:7543  contract ERC721Staking is ReentrancyGuard {... */\n  mload(0x80)\n  mload(0xa0)\n  codecopy(0x00, dataOffset(sub_0), dataSize(sub_0))\n  0x00\n  assignImmutable(\"0x8e8fab5f003314da8d1873ea7720e8d9f47650136d916064d1edb8a11d682624\")\n  0x00\n  assignImmutable(\"0x5c4c6aa067b6f8e6cb38e6ab843832a94d1712d661a04d73c517d6a1931a9e5d\")\n  return(0x00, dataSize(sub_0))\nstop\n\nsub_0: assembly {\n        /* \"StakingContract.sol\":311:7543  contract ERC721Staking is ReentrancyGuard {... */\n      mstore(0x40, 0x80)\n      callvalue\n      dup1\n      iszero\n      tag_1\n      jumpi\n      0x00\n      dup1\n      revert\n    tag_1:\n      pop\n      jumpi(tag_2, lt(calldatasize, 0x04))\n      shr(0xe0, calldataload(0x00))\n      dup1\n      0x9168ae72\n      gt\n      tag_12\n      jumpi\n      dup1\n      0xa694fc3a\n      gt\n      tag_13\n      jumpi\n      dup1\n      0xa694fc3a\n      eq\n      tag_9\n      jumpi\n      dup1\n      0xd1af0c7d\n      eq\n      tag_10\n      jumpi\n      dup1\n      0xf854a27f\n      eq\n      tag_11\n      jumpi\n      0x00\n      dup1\n      revert\n    tag_13:\n      dup1\n      0x9168ae72\n      eq\n      tag_7\n      jumpi\n      dup1\n      0x94067045\n      eq\n      tag_8\n      jumpi\n      0x00\n      dup1\n      revert\n    tag_12:\n      dup1\n      0x2e1a7d4d\n      eq\n      tag_3\n      jumpi\n      dup1\n      0x372500ab\n      eq\n      tag_4\n      jumpi\n      dup1\n      0x63c28db1\n      eq\n      tag_5\n      jumpi\n      dup1\n      0x6588103b\n      eq\n      tag_6\n      jumpi\n    tag_2:\n      0x00\n      dup1\n      revert\n        /* \"StakingContract.sol\":3483:5273  function withdraw(uint256 _tokenId) external nonReentrant {... */\n    tag_3:\n      tag_14\n      tag_15\n      calldatasize\n      0x04\n      tag_16\n      jump\t// in\n    tag_15:\n      tag_17\n      jump\t// in\n    tag_14:\n      stop\n        /* \"StakingContract.sol\":5456:5842  function claimRewards() external {... */\n    tag_4:\n      tag_14\n      tag_19\n      jump\t// in\n        /* \"StakingContract.sol\":6119:6992  function getStakedTokens(address _user) public view returns (StakedToken[] memory) {... */\n    tag_5:\n      tag_20\n      tag_21\n      calldatasize\n      0x04\n      tag_22\n      jump\t// in\n    tag_21:\n      tag_23\n      jump\t// in\n    tag_20:\n      mload(0x40)\n      tag_24\n      swap2\n      swap1\n      tag_25\n      jump\t// in\n    tag_24:\n      mload(0x40)\n      dup1\n      swap2\n      sub\n      swap1\n      return\n        /* \"StakingContract.sol\":478:516  IERC721 public immutable nftCollection */\n    tag_6:\n      tag_26\n      immutable(\"0x8e8fab5f003314da8d1873ea7720e8d9f47650136d916064d1edb8a11d682624\")\n      dup2\n      jump\n    tag_26:\n      mload(0x40)\n      sub(shl(0xa0, 0x01), 0x01)\n        /* \"#utility.yul\":1636:1691   */\n      swap1\n      swap2\n      and\n        /* \"#utility.yul\":1618:1692   */\n      dup2\n      mstore\n        /* \"#utility.yul\":1606:1608   */\n      0x20\n        /* \"#utility.yul\":1591:1609   */\n      add\n        /* \"StakingContract.sol\":478:516  IERC721 public immutable nftCollection */\n      tag_24\n        /* \"#utility.yul\":1456:1698   */\n      jump\n        /* \"StakingContract.sol\":1491:1532  mapping(address => Staker) public stakers */\n    tag_7:\n      tag_30\n      tag_31\n      calldatasize\n      0x04\n      tag_22\n      jump\t// in\n    tag_31:\n      0x02\n      0x20\n      dup2\n      swap1\n      mstore\n      0x00\n      swap2\n      dup3\n      mstore\n      0x40\n      swap1\n      swap2\n      keccak256\n      dup1\n      sload\n      swap2\n      dup2\n      add\n      sload\n      0x03\n      swap1\n      swap2\n      add\n      sload\n      dup4\n      jump\n    tag_30:\n      0x40\n      dup1\n      mload\n        /* \"#utility.yul\":1905:1930   */\n      swap4\n      dup5\n      mstore\n        /* \"#utility.yul\":1961:1963   */\n      0x20\n        /* \"#utility.yul\":1946:1964   */\n      dup5\n      add\n        /* \"#utility.yul\":1939:1973   */\n      swap3\n      swap1\n      swap3\n      mstore\n        /* \"#utility.yul\":1989:2007   */\n      swap1\n      dup3\n      add\n        /* \"#utility.yul\":1982:2016   */\n      mstore\n        /* \"#utility.yul\":1893:1895   */\n      0x60\n        /* \"#utility.yul\":1878:1896   */\n      add\n        /* \"StakingContract.sol\":1491:1532  mapping(address => Staker) public stakers */\n      tag_24\n        /* \"#utility.yul\":1703:2022   */\n      jump\n        /* \"StakingContract.sol\":1654:1702  mapping(uint256 => address) public stakerAddress */\n    tag_8:\n      tag_26\n      tag_36\n      calldatasize\n      0x04\n      tag_16\n      jump\t// in\n    tag_36:\n      mstore(0x20, 0x03)\n      0x00\n      swap1\n      dup2\n      mstore\n      0x40\n      swap1\n      keccak256\n      sload\n      sub(shl(0xa0, 0x01), 0x01)\n      and\n      dup2\n      jump\n        /* \"StakingContract.sol\":1976:3230  function stake(uint256 _tokenId) external nonReentrant {... */\n    tag_9:\n      tag_14\n      tag_41\n      calldatasize\n      0x04\n      tag_16\n      jump\t// in\n    tag_41:\n      tag_42\n      jump\t// in\n        /* \"StakingContract.sol\":435:471  IERC20 public immutable rewardsToken */\n    tag_10:\n      tag_26\n      immutable(\"0x5c4c6aa067b6f8e6cb38e6ab843832a94d1712d661a04d73c517d6a1931a9e5d\")\n      dup2\n      jump\n        /* \"StakingContract.sol\":5902:6111  function availableRewards(address _staker) public view returns (uint256) {... */\n    tag_11:\n      tag_47\n      tag_48\n      calldatasize\n      0x04\n      tag_22\n      jump\t// in\n    tag_48:\n      tag_49\n      jump\t// in\n    tag_47:\n      mload(0x40)\n        /* \"#utility.yul\":2649:2674   */\n      swap1\n      dup2\n      mstore\n        /* \"#utility.yul\":2637:2639   */\n      0x20\n        /* \"#utility.yul\":2622:2640   */\n      add\n        /* \"StakingContract.sol\":5902:6111  function availableRewards(address _staker) public view returns (uint256) {... */\n      tag_24\n        /* \"#utility.yul\":2503:2680   */\n      jump\n        /* \"StakingContract.sol\":3483:5273  function withdraw(uint256 _tokenId) external nonReentrant {... */\n    tag_17:\n        /* \"@openzeppelin/contracts/security/ReentrancyGuard.sol\":2261:2282   */\n      tag_53\n        /* \"@openzeppelin/contracts/security/ReentrancyGuard.sol\":2261:2280   */\n      tag_54\n        /* \"@openzeppelin/contracts/security/ReentrancyGuard.sol\":2261:2282   */\n      jump\t// in\n    tag_53:\n        /* \"StakingContract.sol\":3662:3672  msg.sender */\n      caller\n        /* \"StakingContract.sol\":3689:3690  0 */\n      0x00\n        /* \"StakingContract.sol\":3654:3673  stakers[msg.sender] */\n      swap1\n      dup2\n      mstore\n        /* \"StakingContract.sol\":3654:3661  stakers */\n      0x02\n        /* \"StakingContract.sol\":3654:3673  stakers[msg.sender] */\n      0x20\n      mstore\n      0x40\n      swap1\n      keccak256\n        /* \"StakingContract.sol\":3654:3686  stakers[msg.sender].amountStaked */\n      sload\n        /* \"StakingContract.sol\":3632:3743  require(... */\n      tag_56\n      jumpi\n      mload(0x40)\n      shl(0xe5, 0x461bcd)\n      dup2\n      mstore\n        /* \"#utility.yul\":2887:2889   */\n      0x20\n        /* \"StakingContract.sol\":3632:3743  require(... */\n      0x04\n      dup3\n      add\n        /* \"#utility.yul\":2869:2890   */\n      mstore\n        /* \"#utility.yul\":2926:2928   */\n      0x19\n        /* \"#utility.yul\":2906:2924   */\n      0x24\n      dup3\n      add\n        /* \"#utility.yul\":2899:2929   */\n      mstore\n        /* \"#utility.yul\":2965:2992   */\n      0x596f752068617665206e6f20746f6b656e73207374616b656400000000000000\n        /* \"#utility.yul\":2945:2963   */\n      0x44\n      dup3\n      add\n        /* \"#utility.yul\":2938:2993   */\n      mstore\n        /* \"#utility.yul\":3010:3028   */\n      0x64\n      add\n        /* \"StakingContract.sol\":3632:3743  require(... */\n    tag_57:\n      mload(0x40)\n      dup1\n      swap2\n      sub\n      swap1\n      revert\n    tag_56:\n        /* \"StakingContract.sol\":3838:3861  stakerAddress[_tokenId] */\n      0x00\n      dup2\n      dup2\n      mstore\n        /* \"StakingContract.sol\":3838:3851  stakerAddress */\n      0x03\n        /* \"StakingContract.sol\":3838:3861  stakerAddress[_tokenId] */\n      0x20\n      mstore\n      0x40\n      swap1\n      keccak256\n      sload\n      sub(shl(0xa0, 0x01), 0x01)\n      and\n        /* \"StakingContract.sol\":3865:3875  msg.sender */\n      caller\n        /* \"StakingContract.sol\":3838:3875  stakerAddress[_tokenId] == msg.sender */\n      eq\n        /* \"StakingContract.sol\":3830:3905  require(stakerAddress[_tokenId] == msg.sender, \"You don't own this token!\") */\n      tag_59\n      jumpi\n      mload(0x40)\n      shl(0xe5, 0x461bcd)\n      dup2\n      mstore\n        /* \"#utility.yul\":3241:3243   */\n      0x20\n        /* \"StakingContract.sol\":3830:3905  require(stakerAddress[_tokenId] == msg.sender, \"You don't own this token!\") */\n      0x04\n      dup3\n      add\n        /* \"#utility.yul\":3223:3244   */\n      mstore\n        /* \"#utility.yul\":3280:3282   */\n      0x19\n        /* \"#utility.yul\":3260:3278   */\n      0x24\n      dup3\n      add\n        /* \"#utility.yul\":3253:3283   */\n      mstore\n        /* \"#utility.yul\":3319:3346   */\n      0x596f7520646f6e2774206f776e207468697320746f6b656e2100000000000000\n        /* \"#utility.yul\":3299:3317   */\n      0x44\n      dup3\n      add\n        /* \"#utility.yul\":3292:3347   */\n      mstore\n        /* \"#utility.yul\":3364:3382   */\n      0x64\n      add\n        /* \"StakingContract.sol\":3830:3905  require(stakerAddress[_tokenId] == msg.sender, \"You don't own this token!\") */\n      tag_57\n        /* \"#utility.yul\":3039:3388   */\n      jump\n        /* \"StakingContract.sol\":3830:3905  require(stakerAddress[_tokenId] == msg.sender, \"You don't own this token!\") */\n    tag_59:\n        /* \"StakingContract.sol\":4017:4032  uint256 rewards */\n      0x00\n        /* \"StakingContract.sol\":4035:4063  calculateRewards(msg.sender) */\n      tag_62\n        /* \"StakingContract.sol\":4052:4062  msg.sender */\n      caller\n        /* \"StakingContract.sol\":4035:4051  calculateRewards */\n      tag_63\n        /* \"StakingContract.sol\":4035:4063  calculateRewards(msg.sender) */\n      jump\t// in\n    tag_62:\n        /* \"StakingContract.sol\":4082:4092  msg.sender */\n      caller\n        /* \"StakingContract.sol\":4074:4093  stakers[msg.sender] */\n      0x00\n      swap1\n      dup2\n      mstore\n        /* \"StakingContract.sol\":4074:4081  stakers */\n      0x02\n        /* \"StakingContract.sol\":4074:4093  stakers[msg.sender] */\n      0x20\n      mstore\n      0x40\n      dup2\n      keccak256\n        /* \"StakingContract.sol\":4074:4110  stakers[msg.sender].unclaimedRewards */\n      0x03\n      add\n        /* \"StakingContract.sol\":4074:4121  stakers[msg.sender].unclaimedRewards += rewards */\n      dup1\n      sload\n        /* \"StakingContract.sol\":4017:4063  uint256 rewards = calculateRewards(msg.sender) */\n      swap3\n      swap4\n      pop\n      dup4\n      swap3\n        /* \"StakingContract.sol\":4074:4110  stakers[msg.sender].unclaimedRewards */\n      swap1\n      swap2\n        /* \"StakingContract.sol\":4074:4093  stakers[msg.sender] */\n      swap1\n        /* \"StakingContract.sol\":4074:4121  stakers[msg.sender].unclaimedRewards += rewards */\n      tag_64\n      swap1\n        /* \"StakingContract.sol\":4017:4063  uint256 rewards = calculateRewards(msg.sender) */\n      dup5\n      swap1\n        /* \"StakingContract.sol\":4074:4121  stakers[msg.sender].unclaimedRewards += rewards */\n      tag_65\n      jump\t// in\n    tag_64:\n      swap1\n      swap2\n      sstore\n      pop\n        /* \"StakingContract.sol\":4204:4217  uint256 index */\n      0x00\n      swap1\n      pop\n      dup1\n        /* \"StakingContract.sol\":4232:4585  for (uint256 i = 0; i < stakers[msg.sender].stakedTokens.length; i++) {... */\n    tag_66:\n        /* \"StakingContract.sol\":4264:4274  msg.sender */\n      caller\n        /* \"StakingContract.sol\":4256:4275  stakers[msg.sender] */\n      0x00\n      swap1\n      dup2\n      mstore\n        /* \"StakingContract.sol\":4256:4263  stakers */\n      0x02\n        /* \"StakingContract.sol\":4256:4275  stakers[msg.sender] */\n      0x20\n      mstore\n      0x40\n      swap1\n      keccak256\n        /* \"StakingContract.sol\":4256:4288  stakers[msg.sender].stakedTokens */\n      0x01\n      add\n        /* \"StakingContract.sol\":4256:4295  stakers[msg.sender].stakedTokens.length */\n      sload\n        /* \"StakingContract.sol\":4252:4295  i < stakers[msg.sender].stakedTokens.length */\n      dup2\n      lt\n        /* \"StakingContract.sol\":4232:4585  for (uint256 i = 0; i < stakers[msg.sender].stakedTokens.length; i++) {... */\n      iszero\n      tag_67\n      jumpi\n        /* \"StakingContract.sol\":4347:4357  msg.sender */\n      caller\n        /* \"StakingContract.sol\":4339:4358  stakers[msg.sender] */\n      0x00\n      swap1\n      dup2\n      mstore\n        /* \"StakingContract.sol\":4339:4346  stakers */\n      0x02\n        /* \"StakingContract.sol\":4339:4358  stakers[msg.sender] */\n      0x20\n      mstore\n      0x40\n      swap1\n      keccak256\n        /* \"StakingContract.sol\":4339:4371  stakers[msg.sender].stakedTokens */\n      0x01\n      add\n        /* \"StakingContract.sol\":4339:4374  stakers[msg.sender].stakedTokens[i] */\n      dup1\n      sload\n        /* \"StakingContract.sol\":4386:4394  _tokenId */\n      dup6\n      swap2\n        /* \"StakingContract.sol\":4339:4371  stakers[msg.sender].stakedTokens */\n      swap1\n        /* \"StakingContract.sol\":4372:4373  i */\n      dup4\n      swap1\n        /* \"StakingContract.sol\":4339:4374  stakers[msg.sender].stakedTokens[i] */\n      dup2\n      lt\n      tag_70\n      jumpi\n      tag_70\n      tag_71\n      jump\t// in\n    tag_70:\n      swap1\n      0x00\n      mstore\n      keccak256(0x00, 0x20)\n      swap1\n      0x02\n      mul\n      add\n        /* \"StakingContract.sol\":4339:4382  stakers[msg.sender].stakedTokens[i].tokenId */\n      0x01\n      add\n      sload\n        /* \"StakingContract.sol\":4339:4394  stakers[msg.sender].stakedTokens[i].tokenId == _tokenId */\n      eq\n        /* \"StakingContract.sol\":4339:4490  stakers[msg.sender].stakedTokens[i].tokenId == _tokenId ... */\n      dup1\n      iszero\n      tag_73\n      jumpi\n      pop\n        /* \"StakingContract.sol\":4442:4452  msg.sender */\n      caller\n        /* \"StakingContract.sol\":4488:4489  0 */\n      0x00\n        /* \"StakingContract.sol\":4434:4453  stakers[msg.sender] */\n      swap1\n      dup2\n      mstore\n        /* \"StakingContract.sol\":4434:4441  stakers */\n      0x02\n        /* \"StakingContract.sol\":4434:4453  stakers[msg.sender] */\n      0x20\n      mstore\n      0x40\n      dup2\n      keccak256\n        /* \"StakingContract.sol\":4434:4466  stakers[msg.sender].stakedTokens */\n      0x01\n      add\n        /* \"StakingContract.sol\":4434:4469  stakers[msg.sender].stakedTokens[i] */\n      dup1\n      sload\n        /* \"StakingContract.sol\":4467:4468  i */\n      dup4\n      swap1\n        /* \"StakingContract.sol\":4434:4469  stakers[msg.sender].stakedTokens[i] */\n      dup2\n      lt\n      tag_75\n      jumpi\n      tag_75\n      tag_71\n      jump\t// in\n    tag_75:\n      0x00\n      swap2\n      dup3\n      mstore\n      0x20\n      swap1\n      swap2\n      keccak256\n      0x02\n      swap1\n      swap2\n      mul\n      add\n        /* \"StakingContract.sol\":4434:4476  stakers[msg.sender].stakedTokens[i].staker */\n      sload\n      sub(shl(0xa0, 0x01), 0x01)\n      and\n        /* \"StakingContract.sol\":4434:4490  stakers[msg.sender].stakedTokens[i].staker != address(0) */\n      eq\n      iszero\n        /* \"StakingContract.sol\":4339:4490  stakers[msg.sender].stakedTokens[i].tokenId == _tokenId ... */\n    tag_73:\n        /* \"StakingContract.sol\":4317:4574  if (... */\n      iszero\n      tag_77\n      jumpi\n        /* \"StakingContract.sol\":4533:4534  i */\n      dup1\n        /* \"StakingContract.sol\":4525:4534  index = i */\n      swap2\n      pop\n        /* \"StakingContract.sol\":4553:4558  break */\n      jump(tag_67)\n        /* \"StakingContract.sol\":4317:4574  if (... */\n    tag_77:\n        /* \"StakingContract.sol\":4297:4300  i++ */\n      dup1\n      tag_78\n      dup2\n      tag_79\n      jump\t// in\n    tag_78:\n      swap2\n      pop\n      pop\n        /* \"StakingContract.sol\":4232:4585  for (uint256 i = 0; i < stakers[msg.sender].stakedTokens.length; i++) {... */\n      jump(tag_66)\n    tag_67:\n      pop\n        /* \"StakingContract.sol\":4689:4699  msg.sender */\n      caller\n        /* \"StakingContract.sol\":4738:4739  0 */\n      0x00\n        /* \"StakingContract.sol\":4681:4700  stakers[msg.sender] */\n      swap1\n      dup2\n      mstore\n        /* \"StakingContract.sol\":4681:4688  stakers */\n      0x02\n        /* \"StakingContract.sol\":4681:4700  stakers[msg.sender] */\n      0x20\n      mstore\n      0x40\n      dup2\n      keccak256\n        /* \"StakingContract.sol\":4681:4713  stakers[msg.sender].stakedTokens */\n      0x01\n      add\n        /* \"StakingContract.sol\":4681:4720  stakers[msg.sender].stakedTokens[index] */\n      dup1\n      sload\n        /* \"StakingContract.sol\":4714:4719  index */\n      dup4\n      swap1\n        /* \"StakingContract.sol\":4681:4720  stakers[msg.sender].stakedTokens[index] */\n      dup2\n      lt\n      tag_81\n      jumpi\n      tag_81\n      tag_71\n      jump\t// in\n    tag_81:\n      0x00\n      swap2\n      dup3\n      mstore\n      0x20\n      dup1\n      dup4\n      keccak256\n      0x02\n      swap3\n      dup4\n      mul\n      add\n        /* \"StakingContract.sol\":4681:4740  stakers[msg.sender].stakedTokens[index].staker = address(0) */\n      dup1\n      sload\n      not(sub(shl(0xa0, 0x01), 0x01))\n      and\n      sub(shl(0xa0, 0x01), 0x01)\n      swap6\n      swap1\n      swap6\n      and\n      swap5\n      swap1\n      swap5\n      or\n      swap1\n      swap4\n      sstore\n        /* \"StakingContract.sol\":4817:4827  msg.sender */\n      caller\n        /* \"StakingContract.sol\":4809:4828  stakers[msg.sender] */\n      dup3\n      mstore\n      swap1\n      swap2\n      mstore\n      0x40\n      dup2\n      keccak256\n        /* \"StakingContract.sol\":4809:4843  stakers[msg.sender].amountStaked-- */\n      dup1\n      sload\n      swap2\n      tag_83\n      dup4\n      tag_84\n      jump\t// in\n    tag_83:\n      swap1\n      swap2\n      sstore\n      pop\n      pop\n        /* \"StakingContract.sol\":5004:5005  0 */\n      0x00\n        /* \"StakingContract.sol\":4970:4993  stakerAddress[_tokenId] */\n      dup4\n      dup2\n      mstore\n        /* \"StakingContract.sol\":4970:4983  stakerAddress */\n      0x03\n        /* \"StakingContract.sol\":4970:4993  stakerAddress[_tokenId] */\n      0x20\n      mstore\n      0x40\n      swap1\n      dup2\n      swap1\n      keccak256\n        /* \"StakingContract.sol\":4970:5006  stakerAddress[_tokenId] = address(0) */\n      dup1\n      sload\n      not(sub(shl(0xa0, 0x01), 0x01))\n      and\n      swap1\n      sstore\n        /* \"StakingContract.sol\":5073:5136  nftCollection.transferFrom(address(this), msg.sender, _tokenId) */\n      mload\n      shl(0xe0, 0x23b872dd)\n      dup2\n      mstore\n        /* \"StakingContract.sol\":5108:5112  this */\n      address\n        /* \"StakingContract.sol\":5073:5136  nftCollection.transferFrom(address(this), msg.sender, _tokenId) */\n      0x04\n      dup3\n      add\n        /* \"#utility.yul\":4334:4368   */\n      mstore\n        /* \"StakingContract.sol\":5115:5125  msg.sender */\n      caller\n        /* \"#utility.yul\":4384:4402   */\n      0x24\n      dup3\n      add\n        /* \"#utility.yul\":4377:4420   */\n      mstore\n        /* \"#utility.yul\":4436:4454   */\n      0x44\n      dup2\n      add\n        /* \"#utility.yul\":4429:4463   */\n      dup5\n      swap1\n      mstore\n      sub(shl(0xa0, 0x01), 0x01)\n        /* \"StakingContract.sol\":5073:5086  nftCollection */\n      immutable(\"0x8e8fab5f003314da8d1873ea7720e8d9f47650136d916064d1edb8a11d682624\")\n        /* \"StakingContract.sol\":5073:5099  nftCollection.transferFrom */\n      and\n      swap1\n      0x23b872dd\n      swap1\n        /* \"#utility.yul\":4246:4264   */\n      0x64\n      add\n        /* \"StakingContract.sol\":5073:5136  nftCollection.transferFrom(address(this), msg.sender, _tokenId) */\n      0x00\n      mload(0x40)\n      dup1\n      dup4\n      sub\n      dup2\n      0x00\n      dup8\n      dup1\n      extcodesize\n      iszero\n      dup1\n      iszero\n      tag_87\n      jumpi\n      0x00\n      dup1\n      revert\n    tag_87:\n      pop\n      gas\n      call\n      iszero\n      dup1\n      iszero\n      tag_89\n      jumpi\n      returndatasize\n      0x00\n      dup1\n      returndatacopy\n      revert(0x00, returndatasize)\n    tag_89:\n      pop\n      pop\n        /* \"StakingContract.sol\":5219:5229  msg.sender */\n      caller\n        /* \"StakingContract.sol\":5211:5230  stakers[msg.sender] */\n      0x00\n      swap1\n      dup2\n      mstore\n        /* \"StakingContract.sol\":5211:5218  stakers */\n      0x02\n        /* \"StakingContract.sol\":5211:5230  stakers[msg.sender] */\n      0x20\n      dup2\n      swap1\n      mstore\n      0x40\n      swap1\n      swap2\n      keccak256\n        /* \"StakingContract.sol\":5250:5265  block.timestamp */\n      timestamp\n        /* \"StakingContract.sol\":5211:5247  stakers[msg.sender].timeOfLastUpdate */\n      swap2\n      add\n        /* \"StakingContract.sol\":5211:5265  stakers[msg.sender].timeOfLastUpdate = block.timestamp */\n      sstore\n      pop\n        /* \"@openzeppelin/contracts/security/ReentrancyGuard.sol\":2303:2323   */\n      tag_90\n      swap3\n      pop\n        /* \"@openzeppelin/contracts/security/ReentrancyGuard.sol\":2303:2321   */\n      tag_91\n      swap2\n      pop\n      pop\n        /* \"@openzeppelin/contracts/security/ReentrancyGuard.sol\":2303:2323   */\n      jump\t// in\n    tag_90:\n        /* \"StakingContract.sol\":3483:5273  function withdraw(uint256 _tokenId) external nonReentrant {... */\n      pop\n      jump\t// out\n        /* \"StakingContract.sol\":5456:5842  function claimRewards() external {... */\n    tag_19:\n        /* \"StakingContract.sol\":5570:5580  msg.sender */\n      caller\n        /* \"StakingContract.sol\":5500:5515  uint256 rewards */\n      0x00\n        /* \"StakingContract.sol\":5562:5581  stakers[msg.sender] */\n      dup2\n      dup2\n      mstore\n        /* \"StakingContract.sol\":5562:5569  stakers */\n      0x02\n        /* \"StakingContract.sol\":5562:5581  stakers[msg.sender] */\n      0x20\n      mstore\n      0x40\n      dup2\n      keccak256\n        /* \"StakingContract.sol\":5562:5598  stakers[msg.sender].unclaimedRewards */\n      0x03\n      add\n      sload\n        /* \"StakingContract.sol\":5500:5515  uint256 rewards */\n      swap1\n      swap2\n        /* \"StakingContract.sol\":5518:5546  calculateRewards(msg.sender) */\n      tag_93\n      swap1\n        /* \"StakingContract.sol\":5518:5534  calculateRewards */\n      tag_63\n        /* \"StakingContract.sol\":5518:5546  calculateRewards(msg.sender) */\n      jump\t// in\n    tag_93:\n        /* \"StakingContract.sol\":5518:5598  calculateRewards(msg.sender) +... */\n      tag_94\n      swap2\n      swap1\n      tag_65\n      jump\t// in\n    tag_94:\n        /* \"StakingContract.sol\":5500:5598  uint256 rewards = calculateRewards(msg.sender) +... */\n      swap1\n      pop\n        /* \"StakingContract.sol\":5627:5628  0 */\n      0x00\n        /* \"StakingContract.sol\":5617:5624  rewards */\n      dup2\n        /* \"StakingContract.sol\":5617:5628  rewards > 0 */\n      gt\n        /* \"StakingContract.sol\":5609:5661  require(rewards > 0, \"You have no rewards to claim\") */\n      tag_95\n      jumpi\n      mload(0x40)\n      shl(0xe5, 0x461bcd)\n      dup2\n      mstore\n        /* \"#utility.yul\":4676:4678   */\n      0x20\n        /* \"StakingContract.sol\":5609:5661  require(rewards > 0, \"You have no rewards to claim\") */\n      0x04\n      dup3\n      add\n        /* \"#utility.yul\":4658:4679   */\n      mstore\n        /* \"#utility.yul\":4715:4717   */\n      0x1c\n        /* \"#utility.yul\":4695:4713   */\n      0x24\n      dup3\n      add\n        /* \"#utility.yul\":4688:4718   */\n      mstore\n        /* \"#utility.yul\":4754:4784   */\n      0x596f752068617665206e6f207265776172647320746f20636c61696d00000000\n        /* \"#utility.yul\":4734:4752   */\n      0x44\n      dup3\n      add\n        /* \"#utility.yul\":4727:4785   */\n      mstore\n        /* \"#utility.yul\":4802:4820   */\n      0x64\n      add\n        /* \"StakingContract.sol\":5609:5661  require(rewards > 0, \"You have no rewards to claim\") */\n      tag_57\n        /* \"#utility.yul\":4474:4826   */\n      jump\n        /* \"StakingContract.sol\":5609:5661  require(rewards > 0, \"You have no rewards to claim\") */\n    tag_95:\n        /* \"StakingContract.sol\":5680:5690  msg.sender */\n      caller\n        /* \"StakingContract.sol\":5672:5691  stakers[msg.sender] */\n      0x00\n      dup2\n      dup2\n      mstore\n        /* \"StakingContract.sol\":5672:5679  stakers */\n      0x02\n        /* \"StakingContract.sol\":5672:5691  stakers[msg.sender] */\n      0x20\n      dup2\n      swap1\n      mstore\n      0x40\n      dup3\n      keccak256\n        /* \"StakingContract.sol\":5711:5726  block.timestamp */\n      timestamp\n        /* \"StakingContract.sol\":5672:5708  stakers[msg.sender].timeOfLastUpdate */\n      swap2\n      dup2\n      add\n        /* \"StakingContract.sol\":5672:5726  stakers[msg.sender].timeOfLastUpdate = block.timestamp */\n      swap2\n      swap1\n      swap2\n      sstore\n        /* \"StakingContract.sol\":5737:5773  stakers[msg.sender].unclaimedRewards */\n      0x03\n      add\n        /* \"StakingContract.sol\":5737:5777  stakers[msg.sender].unclaimedRewards = 0 */\n      sstore\n        /* \"StakingContract.sol\":5788:5834  rewardsToken.safeTransfer(msg.sender, rewards) */\n      tag_90\n      swap1\n        /* \"StakingContract.sol\":5788:5800  rewardsToken */\n      immutable(\"0x5c4c6aa067b6f8e6cb38e6ab843832a94d1712d661a04d73c517d6a1931a9e5d\")\n      sub(shl(0xa0, 0x01), 0x01)\n        /* \"StakingContract.sol\":5788:5813  rewardsToken.safeTransfer */\n      and\n      swap1\n        /* \"StakingContract.sol\":5826:5833  rewards */\n      dup4\n        /* \"StakingContract.sol\":5788:5813  rewardsToken.safeTransfer */\n      tag_99\n        /* \"StakingContract.sol\":5788:5834  rewardsToken.safeTransfer(msg.sender, rewards) */\n      jump\t// in\n        /* \"StakingContract.sol\":6119:6992  function getStakedTokens(address _user) public view returns (StakedToken[] memory) {... */\n    tag_23:\n      sub(shl(0xa0, 0x01), 0x01)\n        /* \"StakingContract.sol\":6256:6270  stakers[_user] */\n      dup2\n      and\n        /* \"StakingContract.sol\":6286:6287  0 */\n      0x00\n        /* \"StakingContract.sol\":6256:6270  stakers[_user] */\n      swap1\n      dup2\n      mstore\n        /* \"StakingContract.sol\":6256:6263  stakers */\n      0x02\n        /* \"StakingContract.sol\":6256:6270  stakers[_user] */\n      0x20\n      mstore\n      0x40\n      swap1\n      keccak256\n        /* \"StakingContract.sol\":6256:6283  stakers[_user].amountStaked */\n      sload\n        /* \"StakingContract.sol\":6180:6200  StakedToken[] memory */\n      0x60\n      swap1\n        /* \"StakingContract.sol\":6256:6287  stakers[_user].amountStaked > 0 */\n      iszero\n        /* \"StakingContract.sol\":6252:6985  if (stakers[_user].amountStaked > 0) {... */\n      tag_101\n      jumpi\n      sub(shl(0xa0, 0x01), 0x01)\n        /* \"StakingContract.sol\":6452:6466  stakers[_user] */\n      dup3\n      and\n        /* \"StakingContract.sol\":6397:6431  StakedToken[] memory _stakedTokens */\n      0x00\n        /* \"StakingContract.sol\":6452:6466  stakers[_user] */\n      swap1\n      dup2\n      mstore\n        /* \"StakingContract.sol\":6452:6459  stakers */\n      0x02\n        /* \"StakingContract.sol\":6452:6466  stakers[_user] */\n      0x20\n      mstore\n      0x40\n      dup2\n      keccak256\n        /* \"StakingContract.sol\":6452:6479  stakers[_user].amountStaked */\n      sload\n        /* \"StakingContract.sol\":6434:6480  new StakedToken[](stakers[_user].amountStaked) */\n      0xffffffffffffffff\n      dup2\n      gt\n      iszero\n      tag_103\n      jumpi\n      tag_103\n      tag_104\n      jump\t// in\n    tag_103:\n      mload(0x40)\n      swap1\n      dup1\n      dup3\n      mstore\n      dup1\n      0x20\n      mul\n      0x20\n      add\n      dup3\n      add\n      0x40\n      mstore\n      dup1\n      iszero\n      tag_105\n      jumpi\n      dup2\n      0x20\n      add\n    tag_106:\n      0x40\n      dup1\n      mload\n      dup1\n      dup3\n      add\n      swap1\n      swap2\n      mstore\n      0x00\n      dup1\n      dup3\n      mstore\n      0x20\n      dup3\n      add\n      mstore\n      dup2\n      mstore\n      0x20\n      add\n      swap1\n      0x01\n      swap1\n      sub\n      swap1\n      dup2\n      tag_106\n      jumpi\n      swap1\n      pop\n    tag_105:\n      pop\n        /* \"StakingContract.sol\":6397:6480  StakedToken[] memory _stakedTokens = new StakedToken[](stakers[_user].amountStaked) */\n      swap1\n      pop\n        /* \"StakingContract.sol\":6495:6509  uint256 _index */\n      0x00\n        /* \"StakingContract.sol\":6535:6544  uint256 j */\n      dup1\n        /* \"StakingContract.sol\":6530:6816  for (uint256 j = 0; j < stakers[_user].stakedTokens.length; j++) {... */\n    tag_109:\n      sub(shl(0xa0, 0x01), 0x01)\n        /* \"StakingContract.sol\":6554:6568  stakers[_user] */\n      dup6\n      and\n      0x00\n      swap1\n      dup2\n      mstore\n        /* \"StakingContract.sol\":6554:6561  stakers */\n      0x02\n        /* \"StakingContract.sol\":6554:6568  stakers[_user] */\n      0x20\n      mstore\n      0x40\n      swap1\n      keccak256\n        /* \"StakingContract.sol\":6554:6581  stakers[_user].stakedTokens */\n      0x01\n      add\n        /* \"StakingContract.sol\":6554:6588  stakers[_user].stakedTokens.length */\n      sload\n        /* \"StakingContract.sol\":6550:6588  j < stakers[_user].stakedTokens.length */\n      dup2\n      lt\n        /* \"StakingContract.sol\":6530:6816  for (uint256 j = 0; j < stakers[_user].stakedTokens.length; j++) {... */\n      iszero\n      tag_110\n      jumpi\n      sub(shl(0xa0, 0x01), 0x01)\n        /* \"StakingContract.sol\":6618:6632  stakers[_user] */\n      dup6\n      and\n        /* \"StakingContract.sol\":6668:6669  0 */\n      0x00\n        /* \"StakingContract.sol\":6618:6632  stakers[_user] */\n      swap1\n      dup2\n      mstore\n        /* \"StakingContract.sol\":6618:6625  stakers */\n      0x02\n        /* \"StakingContract.sol\":6618:6632  stakers[_user] */\n      0x20\n      mstore\n      0x40\n      dup2\n      keccak256\n        /* \"StakingContract.sol\":6618:6645  stakers[_user].stakedTokens */\n      0x01\n      add\n        /* \"StakingContract.sol\":6618:6648  stakers[_user].stakedTokens[j] */\n      dup1\n      sload\n        /* \"StakingContract.sol\":6646:6647  j */\n      dup4\n      swap1\n        /* \"StakingContract.sol\":6618:6648  stakers[_user].stakedTokens[j] */\n      dup2\n      lt\n      tag_113\n      jumpi\n      tag_113\n      tag_71\n      jump\t// in\n    tag_113:\n      0x00\n      swap2\n      dup3\n      mstore\n      0x20\n      swap1\n      swap2\n      keccak256\n      0x02\n      swap1\n      swap2\n      mul\n      add\n        /* \"StakingContract.sol\":6618:6655  stakers[_user].stakedTokens[j].staker */\n      sload\n      sub(shl(0xa0, 0x01), 0x01)\n      and\n        /* \"StakingContract.sol\":6618:6671  stakers[_user].stakedTokens[j].staker != (address(0)) */\n      eq\n        /* \"StakingContract.sol\":6614:6801  if (stakers[_user].stakedTokens[j].staker != (address(0))) {... */\n      tag_115\n      jumpi\n      sub(shl(0xa0, 0x01), 0x01)\n        /* \"StakingContract.sol\":6720:6734  stakers[_user] */\n      dup6\n      and\n      0x00\n      swap1\n      dup2\n      mstore\n        /* \"StakingContract.sol\":6720:6727  stakers */\n      0x02\n        /* \"StakingContract.sol\":6720:6734  stakers[_user] */\n      0x20\n      mstore\n      0x40\n      swap1\n      keccak256\n        /* \"StakingContract.sol\":6720:6747  stakers[_user].stakedTokens */\n      0x01\n      add\n        /* \"StakingContract.sol\":6720:6750  stakers[_user].stakedTokens[j] */\n      dup1\n      sload\n        /* \"StakingContract.sol\":6748:6749  j */\n      dup3\n      swap1\n        /* \"StakingContract.sol\":6720:6750  stakers[_user].stakedTokens[j] */\n      dup2\n      lt\n      tag_117\n      jumpi\n      tag_117\n      tag_71\n      jump\t// in\n    tag_117:\n      0x00\n      swap2\n      dup3\n      mstore\n      0x20\n      swap2\n      dup3\n      swap1\n      keccak256\n        /* \"StakingContract.sol\":6696:6750  _stakedTokens[_index] = stakers[_user].stakedTokens[j] */\n      0x40\n      dup1\n      mload\n      dup1\n      dup3\n      add\n      swap1\n      swap2\n      mstore\n        /* \"StakingContract.sol\":6720:6750  stakers[_user].stakedTokens[j] */\n      0x02\n      swap1\n      swap3\n      mul\n      add\n        /* \"StakingContract.sol\":6696:6750  _stakedTokens[_index] = stakers[_user].stakedTokens[j] */\n      dup1\n      sload\n      sub(shl(0xa0, 0x01), 0x01)\n      and\n      dup3\n      mstore\n      0x01\n      add\n      sload\n      swap2\n      dup2\n      add\n      swap2\n      swap1\n      swap2\n      mstore\n        /* \"StakingContract.sol\":6696:6717  _stakedTokens[_index] */\n      dup4\n      mload\n        /* \"StakingContract.sol\":6696:6709  _stakedTokens */\n      dup5\n      swap1\n        /* \"StakingContract.sol\":6710:6716  _index */\n      dup5\n      swap1\n        /* \"StakingContract.sol\":6696:6717  _stakedTokens[_index] */\n      dup2\n      lt\n      tag_120\n      jumpi\n      tag_120\n      tag_71\n      jump\t// in\n    tag_120:\n      0x20\n      mul\n      0x20\n      add\n      add\n        /* \"StakingContract.sol\":6696:6750  _stakedTokens[_index] = stakers[_user].stakedTokens[j] */\n      dup2\n      swap1\n      mstore\n      pop\n        /* \"StakingContract.sol\":6773:6781  _index++ */\n      dup2\n      dup1\n      tag_121\n      swap1\n      tag_79\n      jump\t// in\n    tag_121:\n      swap3\n      pop\n      pop\n        /* \"StakingContract.sol\":6614:6801  if (stakers[_user].stakedTokens[j].staker != (address(0))) {... */\n    tag_115:\n        /* \"StakingContract.sol\":6590:6593  j++ */\n      dup1\n      tag_122\n      dup2\n      tag_79\n      jump\t// in\n    tag_122:\n      swap2\n      pop\n      pop\n        /* \"StakingContract.sol\":6530:6816  for (uint256 j = 0; j < stakers[_user].stakedTokens.length; j++) {... */\n      jump(tag_109)\n    tag_110:\n      pop\n        /* \"StakingContract.sol\":6839:6852  _stakedTokens */\n      swap1\n      swap4\n        /* \"StakingContract.sol\":6119:6992  function getStakedTokens(address _user) public view returns (StakedToken[] memory) {... */\n      swap3\n      pop\n      pop\n      pop\n      jump\t// out\n        /* \"StakingContract.sol\":6252:6985  if (stakers[_user].amountStaked > 0) {... */\n    tag_101:\n        /* \"StakingContract.sol\":6953:6973  new StakedToken[](0) */\n      0x40\n      dup1\n      mload\n        /* \"StakingContract.sol\":6971:6972  0 */\n      0x00\n        /* \"StakingContract.sol\":6953:6973  new StakedToken[](0) */\n      dup1\n      dup3\n      mstore\n      0x20\n      dup3\n      add\n      swap1\n      swap3\n      mstore\n      swap1\n      jump(tag_126)\n    tag_127:\n      0x40\n      dup1\n      mload\n      dup1\n      dup3\n      add\n      swap1\n      swap2\n      mstore\n      0x00\n      dup1\n      dup3\n      mstore\n      0x20\n      dup3\n      add\n      mstore\n      dup2\n      mstore\n      0x20\n      add\n      swap1\n      0x01\n      swap1\n      sub\n      swap1\n      dup2\n      tag_127\n      jumpi\n      swap1\n      pop\n    tag_126:\n      pop\n        /* \"StakingContract.sol\":6946:6973  return new StakedToken[](0) */\n      swap3\n        /* \"StakingContract.sol\":6119:6992  function getStakedTokens(address _user) public view returns (StakedToken[] memory) {... */\n      swap2\n      pop\n      pop\n      jump\t// out\n        /* \"StakingContract.sol\":1976:3230  function stake(uint256 _tokenId) external nonReentrant {... */\n    tag_42:\n        /* \"@openzeppelin/contracts/security/ReentrancyGuard.sol\":2261:2282   */\n      tag_130\n        /* \"@openzeppelin/contracts/security/ReentrancyGuard.sol\":2261:2280   */\n      tag_54\n        /* \"@openzeppelin/contracts/security/ReentrancyGuard.sol\":2261:2282   */\n      jump\t// in\n    tag_130:\n        /* \"StakingContract.sol\":2145:2155  msg.sender */\n      caller\n        /* \"StakingContract.sol\":2172:2173  0 */\n      0x00\n        /* \"StakingContract.sol\":2137:2156  stakers[msg.sender] */\n      swap1\n      dup2\n      mstore\n        /* \"StakingContract.sol\":2137:2144  stakers */\n      0x02\n        /* \"StakingContract.sol\":2137:2156  stakers[msg.sender] */\n      0x20\n      mstore\n      0x40\n      swap1\n      keccak256\n        /* \"StakingContract.sol\":2137:2169  stakers[msg.sender].amountStaked */\n      sload\n        /* \"StakingContract.sol\":2137:2173  stakers[msg.sender].amountStaked > 0 */\n      iszero\n        /* \"StakingContract.sol\":2133:2310  if (stakers[msg.sender].amountStaked > 0) {... */\n      tag_132\n      jumpi\n        /* \"StakingContract.sol\":2190:2205  uint256 rewards */\n      0x00\n        /* \"StakingContract.sol\":2208:2236  calculateRewards(msg.sender) */\n      tag_133\n        /* \"StakingContract.sol\":2225:2235  msg.sender */\n      caller\n        /* \"StakingContract.sol\":2208:2224  calculateRewards */\n      tag_63\n        /* \"StakingContract.sol\":2208:2236  calculateRewards(msg.sender) */\n      jump\t// in\n    tag_133:\n        /* \"StakingContract.sol\":2259:2269  msg.sender */\n      caller\n        /* \"StakingContract.sol\":2251:2270  stakers[msg.sender] */\n      0x00\n      swap1\n      dup2\n      mstore\n        /* \"StakingContract.sol\":2251:2258  stakers */\n      0x02\n        /* \"StakingContract.sol\":2251:2270  stakers[msg.sender] */\n      0x20\n      mstore\n      0x40\n      dup2\n      keccak256\n        /* \"StakingContract.sol\":2251:2287  stakers[msg.sender].unclaimedRewards */\n      0x03\n      add\n        /* \"StakingContract.sol\":2251:2298  stakers[msg.sender].unclaimedRewards += rewards */\n      dup1\n      sload\n        /* \"StakingContract.sol\":2190:2236  uint256 rewards = calculateRewards(msg.sender) */\n      swap3\n      swap4\n      pop\n      dup4\n      swap3\n        /* \"StakingContract.sol\":2251:2287  stakers[msg.sender].unclaimedRewards */\n      swap1\n      swap2\n        /* \"StakingContract.sol\":2251:2270  stakers[msg.sender] */\n      swap1\n        /* \"StakingContract.sol\":2251:2298  stakers[msg.sender].unclaimedRewards += rewards */\n      tag_134\n      swap1\n        /* \"StakingContract.sol\":2190:2236  uint256 rewards = calculateRewards(msg.sender) */\n      dup5\n      swap1\n        /* \"StakingContract.sol\":2251:2298  stakers[msg.sender].unclaimedRewards += rewards */\n      tag_65\n      jump\t// in\n    tag_134:\n      swap1\n      swap2\n      sstore\n      pop\n      pop\n      pop\n        /* \"StakingContract.sol\":2133:2310  if (stakers[msg.sender].amountStaked > 0) {... */\n    tag_132:\n        /* \"StakingContract.sol\":2407:2438  nftCollection.ownerOf(_tokenId) */\n      mload(0x40)\n      shl(0xe1, 0x31a9108f)\n      dup2\n      mstore\n      0x04\n      dup2\n      add\n        /* \"#utility.yul\":2649:2674   */\n      dup3\n      swap1\n      mstore\n        /* \"StakingContract.sol\":2442:2452  msg.sender */\n      caller\n      swap1\n      sub(shl(0xa0, 0x01), 0x01)\n        /* \"StakingContract.sol\":2407:2420  nftCollection */\n      immutable(\"0x8e8fab5f003314da8d1873ea7720e8d9f47650136d916064d1edb8a11d682624\")\n        /* \"StakingContract.sol\":2407:2428  nftCollection.ownerOf */\n      and\n      swap1\n      0x6352211e\n      swap1\n        /* \"#utility.yul\":2622:2640   */\n      0x24\n      add\n        /* \"StakingContract.sol\":2407:2438  nftCollection.ownerOf(_tokenId) */\n      0x20\n      mload(0x40)\n      dup1\n      dup4\n      sub\n      dup2\n      dup7\n      gas\n      staticcall\n      iszero\n      dup1\n      iszero\n      tag_137\n      jumpi\n      returndatasize\n      0x00\n      dup1\n      returndatacopy\n      revert(0x00, returndatasize)\n    tag_137:\n      pop\n      pop\n      pop\n      pop\n      mload(0x40)\n      returndatasize\n      not(0x1f)\n      0x1f\n      dup3\n      add\n      and\n      dup3\n      add\n      dup1\n      0x40\n      mstore\n      pop\n      dup2\n      add\n      swap1\n      tag_138\n      swap2\n      swap1\n      tag_139\n      jump\t// in\n    tag_138:\n      sub(shl(0xa0, 0x01), 0x01)\n        /* \"StakingContract.sol\":2407:2452  nftCollection.ownerOf(_tokenId) == msg.sender */\n      and\n      eq\n        /* \"StakingContract.sol\":2385:2505  require(... */\n      tag_140\n      jumpi\n      mload(0x40)\n      shl(0xe5, 0x461bcd)\n      dup2\n      mstore\n        /* \"#utility.yul\":3241:3243   */\n      0x20\n        /* \"StakingContract.sol\":2385:2505  require(... */\n      0x04\n      dup3\n      add\n        /* \"#utility.yul\":3223:3244   */\n      mstore\n        /* \"#utility.yul\":3280:3282   */\n      0x19\n        /* \"#utility.yul\":3260:3278   */\n      0x24\n      dup3\n      add\n        /* \"#utility.yul\":3253:3283   */\n      mstore\n        /* \"#utility.yul\":3319:3346   */\n      0x596f7520646f6e2774206f776e207468697320746f6b656e2100000000000000\n        /* \"#utility.yul\":3299:3317   */\n      0x44\n      dup3\n      add\n        /* \"#utility.yul\":3292:3347   */\n      mstore\n        /* \"#utility.yul\":3364:3382   */\n      0x64\n      add\n        /* \"StakingContract.sol\":2385:2505  require(... */\n      tag_57\n        /* \"#utility.yul\":3039:3388   */\n      jump\n        /* \"StakingContract.sol\":2385:2505  require(... */\n    tag_140:\n        /* \"StakingContract.sol\":2587:2650  nftCollection.transferFrom(msg.sender, address(this), _tokenId) */\n      mload(0x40)\n      shl(0xe0, 0x23b872dd)\n      dup2\n      mstore\n        /* \"StakingContract.sol\":2614:2624  msg.sender */\n      caller\n        /* \"StakingContract.sol\":2587:2650  nftCollection.transferFrom(msg.sender, address(this), _tokenId) */\n      0x04\n      dup3\n      add\n        /* \"#utility.yul\":4334:4368   */\n      mstore\n        /* \"StakingContract.sol\":2634:2638  this */\n      address\n        /* \"#utility.yul\":4384:4402   */\n      0x24\n      dup3\n      add\n        /* \"#utility.yul\":4377:4420   */\n      mstore\n        /* \"#utility.yul\":4436:4454   */\n      0x44\n      dup2\n      add\n        /* \"#utility.yul\":4429:4463   */\n      dup3\n      swap1\n      mstore\n        /* \"StakingContract.sol\":2587:2600  nftCollection */\n      immutable(\"0x8e8fab5f003314da8d1873ea7720e8d9f47650136d916064d1edb8a11d682624\")\n      sub(shl(0xa0, 0x01), 0x01)\n        /* \"StakingContract.sol\":2587:2613  nftCollection.transferFrom */\n      and\n      swap1\n      0x23b872dd\n      swap1\n        /* \"#utility.yul\":4246:4264   */\n      0x64\n      add\n        /* \"StakingContract.sol\":2587:2650  nftCollection.transferFrom(msg.sender, address(this), _tokenId) */\n      0x00\n      mload(0x40)\n      dup1\n      dup4\n      sub\n      dup2\n      0x00\n      dup8\n      dup1\n      extcodesize\n      iszero\n      dup1\n      iszero\n      tag_143\n      jumpi\n      0x00\n      dup1\n      revert\n    tag_143:\n      pop\n      gas\n      call\n      iszero\n      dup1\n      iszero\n      tag_145\n      jumpi\n      returndatasize\n      0x00\n      dup1\n      returndatacopy\n      revert(0x00, returndatasize)\n    tag_145:\n      pop\n      pop\n        /* \"StakingContract.sol\":2727:2760  StakedToken(msg.sender, _tokenId) */\n      0x40\n      dup1\n      mload\n      dup1\n      dup3\n      add\n      dup3\n      mstore\n        /* \"StakingContract.sol\":2739:2749  msg.sender */\n      caller\n        /* \"StakingContract.sol\":2727:2760  StakedToken(msg.sender, _tokenId) */\n      dup1\n      dup3\n      mstore\n      0x20\n      dup1\n      dup4\n      add\n      dup8\n      dup2\n      mstore\n      0x00\n        /* \"StakingContract.sol\":2825:2844  stakers[msg.sender] */\n      dup4\n      dup2\n      mstore\n        /* \"StakingContract.sol\":2825:2832  stakers */\n      0x02\n        /* \"StakingContract.sol\":2825:2844  stakers[msg.sender] */\n      dup1\n      dup5\n      mstore\n      swap6\n      dup2\n      keccak256\n        /* \"StakingContract.sol\":2825:2857  stakers[msg.sender].stakedTokens */\n      0x01\n      dup1\n      dup3\n      add\n        /* \"StakingContract.sol\":2825:2875  stakers[msg.sender].stakedTokens.push(stakedToken) */\n      dup1\n      sload\n      dup1\n      dup4\n      add\n      dup3\n      sstore\n      swap1\n      dup5\n      mstore\n      swap5\n      dup4\n      keccak256\n      dup8\n      mload\n      swap6\n      swap1\n      swap9\n      mul\n      swap1\n      swap8\n      add\n      dup1\n      sload\n      not(sub(shl(0xa0, 0x01), 0x01))\n      and\n      sub(shl(0xa0, 0x01), 0x01)\n      swap1\n      swap6\n      and\n      swap5\n      swap1\n      swap5\n      or\n      dup5\n      sstore\n      swap2\n      mload\n      swap3\n      swap1\n      swap6\n      add\n      swap2\n      swap1\n      swap2\n      sstore\n        /* \"StakingContract.sol\":2944:2963  stakers[msg.sender] */\n      swap1\n      dup4\n      mstore\n        /* \"StakingContract.sol\":2944:2978  stakers[msg.sender].amountStaked++ */\n      dup1\n      sload\n        /* \"StakingContract.sol\":2727:2760  StakedToken(msg.sender, _tokenId) */\n      swap2\n      swap5\n      pop\n        /* \"StakingContract.sol\":2944:2978  stakers[msg.sender].amountStaked++ */\n      swap1\n      swap3\n      pop\n        /* \"StakingContract.sol\":2825:2844  stakers[msg.sender] */\n      swap1\n        /* \"StakingContract.sol\":2944:2978  stakers[msg.sender].amountStaked++ */\n      tag_147\n      dup4\n      tag_79\n      jump\t// in\n    tag_147:\n      swap1\n      swap2\n      sstore\n      pop\n      pop\n      pop\n        /* \"StakingContract.sol\":3061:3084  stakerAddress[_tokenId] */\n      0x00\n      dup2\n      dup2\n      mstore\n        /* \"StakingContract.sol\":3061:3074  stakerAddress */\n      0x03\n        /* \"StakingContract.sol\":3061:3084  stakerAddress[_tokenId] */\n      0x20\n      swap1\n      dup2\n      mstore\n      0x40\n      dup1\n      dup4\n      keccak256\n        /* \"StakingContract.sol\":3061:3097  stakerAddress[_tokenId] = msg.sender */\n      dup1\n      sload\n      not(sub(shl(0xa0, 0x01), 0x01))\n      and\n        /* \"StakingContract.sol\":3087:3097  msg.sender */\n      caller\n        /* \"StakingContract.sol\":3061:3097  stakerAddress[_tokenId] = msg.sender */\n      swap1\n      dup2\n      or\n      swap1\n      swap2\n      sstore\n        /* \"StakingContract.sol\":3168:3187  stakers[msg.sender] */\n      dup4\n      mstore\n        /* \"StakingContract.sol\":3168:3175  stakers */\n      0x02\n        /* \"StakingContract.sol\":3168:3187  stakers[msg.sender] */\n      swap2\n      dup3\n      swap1\n      mstore\n      swap1\n      swap2\n      keccak256\n        /* \"StakingContract.sol\":3207:3222  block.timestamp */\n      timestamp\n        /* \"StakingContract.sol\":3168:3204  stakers[msg.sender].timeOfLastUpdate */\n      swap2\n      add\n        /* \"StakingContract.sol\":3168:3222  stakers[msg.sender].timeOfLastUpdate = block.timestamp */\n      sstore\n        /* \"@openzeppelin/contracts/security/ReentrancyGuard.sol\":2303:2323   */\n      tag_90\n        /* \"@openzeppelin/contracts/security/ReentrancyGuard.sol\":1716:1717   */\n      0x01\n        /* \"@openzeppelin/contracts/security/ReentrancyGuard.sol\":2809:2816   */\n      0x00\n        /* \"@openzeppelin/contracts/security/ReentrancyGuard.sol\":2809:2831   */\n      sstore\n        /* \"@openzeppelin/contracts/security/ReentrancyGuard.sol\":2629:2838   */\n      jump\n        /* \"StakingContract.sol\":5902:6111  function availableRewards(address _staker) public view returns (uint256) {... */\n    tag_49:\n      sub(shl(0xa0, 0x01), 0x01)\n        /* \"StakingContract.sol\":6045:6061  stakers[_staker] */\n      dup2\n      and\n        /* \"StakingContract.sol\":5966:5973  uint256 */\n      0x00\n        /* \"StakingContract.sol\":6045:6061  stakers[_staker] */\n      swap1\n      dup2\n      mstore\n        /* \"StakingContract.sol\":6045:6052  stakers */\n      0x02\n        /* \"StakingContract.sol\":6045:6061  stakers[_staker] */\n      0x20\n      mstore\n      0x40\n      dup2\n      keccak256\n        /* \"StakingContract.sol\":6045:6078  stakers[_staker].unclaimedRewards */\n      0x03\n      add\n      sload\n        /* \"StakingContract.sol\":5966:5973  uint256 */\n      dup2\n      swap1\n        /* \"StakingContract.sol\":6004:6029  calculateRewards(_staker) */\n      tag_150\n        /* \"StakingContract.sol\":6053:6060  _staker */\n      dup5\n        /* \"StakingContract.sol\":6004:6020  calculateRewards */\n      tag_63\n        /* \"StakingContract.sol\":6004:6029  calculateRewards(_staker) */\n      jump\t// in\n    tag_150:\n        /* \"StakingContract.sol\":6004:6078  calculateRewards(_staker) +... */\n      tag_151\n      swap2\n      swap1\n      tag_65\n      jump\t// in\n    tag_151:\n        /* \"StakingContract.sol\":5986:6078  uint256 rewards = calculateRewards(_staker) +... */\n      swap4\n        /* \"StakingContract.sol\":5902:6111  function availableRewards(address _staker) public view returns (uint256) {... */\n      swap3\n      pop\n      pop\n      pop\n      jump\t// out\n        /* \"@openzeppelin/contracts/security/ReentrancyGuard.sol\":2336:2623   */\n    tag_54:\n        /* \"@openzeppelin/contracts/security/ReentrancyGuard.sol\":1759:1760   */\n      0x02\n        /* \"@openzeppelin/contracts/security/ReentrancyGuard.sol\":2468:2475   */\n      sload(0x00)\n        /* \"@openzeppelin/contracts/security/ReentrancyGuard.sol\":2468:2487   */\n      sub\n        /* \"@openzeppelin/contracts/security/ReentrancyGuard.sol\":2460:2523   */\n      tag_153\n      jumpi\n      mload(0x40)\n      shl(0xe5, 0x461bcd)\n      dup2\n      mstore\n        /* \"#utility.yul\":5421:5423   */\n      0x20\n        /* \"@openzeppelin/contracts/security/ReentrancyGuard.sol\":2460:2523   */\n      0x04\n      dup3\n      add\n        /* \"#utility.yul\":5403:5424   */\n      mstore\n        /* \"#utility.yul\":5460:5462   */\n      0x1f\n        /* \"#utility.yul\":5440:5458   */\n      0x24\n      dup3\n      add\n        /* \"#utility.yul\":5433:5463   */\n      mstore\n        /* \"#utility.yul\":5499:5532   */\n      0x5265656e7472616e637947756172643a207265656e7472616e742063616c6c00\n        /* \"#utility.yul\":5479:5497   */\n      0x44\n      dup3\n      add\n        /* \"#utility.yul\":5472:5533   */\n      mstore\n        /* \"#utility.yul\":5550:5568   */\n      0x64\n      add\n        /* \"@openzeppelin/contracts/security/ReentrancyGuard.sol\":2460:2523   */\n      tag_57\n        /* \"#utility.yul\":5219:5574   */\n      jump\n        /* \"@openzeppelin/contracts/security/ReentrancyGuard.sol\":2460:2523   */\n    tag_153:\n        /* \"@openzeppelin/contracts/security/ReentrancyGuard.sol\":1759:1760   */\n      0x02\n        /* \"@openzeppelin/contracts/security/ReentrancyGuard.sol\":2598:2605   */\n      0x00\n        /* \"@openzeppelin/contracts/security/ReentrancyGuard.sol\":2598:2616   */\n      sstore\n        /* \"@openzeppelin/contracts/security/ReentrancyGuard.sol\":2336:2623   */\n      jump\t// out\n        /* \"StakingContract.sol\":7240:7540  function calculateRewards(address _staker)... */\n    tag_63:\n        /* \"StakingContract.sol\":7509:7523  rewardsPerHour */\n      sload(0x01)\n      sub(shl(0xa0, 0x01), 0x01)\n        /* \"StakingContract.sol\":7465:7481  stakers[_staker] */\n      dup3\n      and\n        /* \"StakingContract.sol\":7333:7349  uint256 _rewards */\n      0x00\n        /* \"StakingContract.sol\":7465:7481  stakers[_staker] */\n      swap1\n      dup2\n      mstore\n        /* \"StakingContract.sol\":7465:7472  stakers */\n      0x02\n        /* \"StakingContract.sol\":7465:7481  stakers[_staker] */\n      0x20\n      dup2\n      swap1\n      mstore\n      0x40\n      dup3\n      keccak256\n        /* \"StakingContract.sol\":7465:7494  stakers[_staker].amountStaked */\n      dup1\n      sload\n        /* \"StakingContract.sol\":7411:7444  stakers[_staker].timeOfLastUpdate */\n      swap2\n      add\n      sload\n        /* \"StakingContract.sol\":7333:7349  uint256 _rewards */\n      swap2\n      swap3\n        /* \"StakingContract.sol\":7527:7531  3600 */\n      0x0e10\n      swap3\n        /* \"StakingContract.sol\":7509:7523  rewardsPerHour */\n      swap1\n      swap2\n        /* \"StakingContract.sol\":7465:7494  stakers[_staker].amountStaked */\n      swap1\n        /* \"StakingContract.sol\":7393:7444  block.timestamp - stakers[_staker].timeOfLastUpdate */\n      tag_157\n      swap1\n        /* \"StakingContract.sol\":7393:7408  block.timestamp */\n      timestamp\n        /* \"StakingContract.sol\":7393:7444  block.timestamp - stakers[_staker].timeOfLastUpdate */\n      tag_158\n      jump\t// in\n    tag_157:\n        /* \"StakingContract.sol\":7392:7494  (block.timestamp - stakers[_staker].timeOfLastUpdate) *... */\n      tag_159\n      swap2\n      swap1\n      tag_160\n      jump\t// in\n    tag_159:\n        /* \"StakingContract.sol\":7376:7523  (... */\n      tag_161\n      swap2\n      swap1\n      tag_160\n      jump\t// in\n    tag_161:\n        /* \"StakingContract.sol\":7375:7531  ((... */\n      tag_162\n      swap2\n      swap1\n      tag_163\n      jump\t// in\n    tag_162:\n        /* \"StakingContract.sol\":7367:7532  return (((... */\n      swap3\n        /* \"StakingContract.sol\":7240:7540  function calculateRewards(address _staker)... */\n      swap2\n      pop\n      pop\n      jump\t// out\n        /* \"@openzeppelin/contracts/security/ReentrancyGuard.sol\":2629:2838   */\n    tag_91:\n        /* \"@openzeppelin/contracts/security/ReentrancyGuard.sol\":1716:1717   */\n      0x01\n        /* \"@openzeppelin/contracts/security/ReentrancyGuard.sol\":2809:2816   */\n      0x00\n        /* \"@openzeppelin/contracts/security/ReentrancyGuard.sol\":2809:2831   */\n      sstore\n        /* \"@openzeppelin/contracts/security/ReentrancyGuard.sol\":2629:2838   */\n      jump\t// out\n        /* \"@openzeppelin/contracts/token/ERC20/utils/SafeERC20.sol\":763:968   */\n    tag_99:\n        /* \"@openzeppelin/contracts/token/ERC20/utils/SafeERC20.sol\":902:960   */\n      0x40\n      dup1\n      mload\n      sub(shl(0xa0, 0x01), 0x01)\n        /* \"#utility.yul\":6296:6351   */\n      dup5\n      and\n        /* \"@openzeppelin/contracts/token/ERC20/utils/SafeERC20.sol\":902:960   */\n      0x24\n      dup3\n      add\n        /* \"#utility.yul\":6278:6352   */\n      mstore\n        /* \"#utility.yul\":6368:6386   */\n      0x44\n      dup1\n      dup3\n      add\n        /* \"#utility.yul\":6361:6395   */\n      dup5\n      swap1\n      mstore\n        /* \"@openzeppelin/contracts/token/ERC20/utils/SafeERC20.sol\":902:960   */\n      dup3\n      mload\n      dup1\n      dup4\n      sub\n      swap1\n      swap2\n      add\n      dup2\n      mstore\n        /* \"#utility.yul\":6251:6269   */\n      0x64\n      swap1\n      swap2\n      add\n        /* \"@openzeppelin/contracts/token/ERC20/utils/SafeERC20.sol\":902:960   */\n      swap1\n      swap2\n      mstore\n      0x20\n      dup2\n      add\n      dup1\n      mload\n      0xffffffffffffffffffffffffffffffffffffffffffffffffffffffff\n      and\n      shl(0xe0, 0xa9059cbb)\n      or\n      swap1\n      mstore\n        /* \"@openzeppelin/contracts/token/ERC20/utils/SafeERC20.sol\":875:961   */\n      tag_166\n      swap1\n        /* \"@openzeppelin/contracts/token/ERC20/utils/SafeERC20.sol\":895:900   */\n      dup5\n      swap1\n        /* \"@openzeppelin/contracts/token/ERC20/utils/SafeERC20.sol\":875:894   */\n      tag_169\n        /* \"@openzeppelin/contracts/token/ERC20/utils/SafeERC20.sol\":875:961   */\n      jump\t// in\n    tag_166:\n        /* \"@openzeppelin/contracts/token/ERC20/utils/SafeERC20.sol\":763:968   */\n      pop\n      pop\n      pop\n      jump\t// out\n        /* \"@openzeppelin/contracts/token/ERC20/utils/SafeERC20.sol\":3747:4453   */\n    tag_169:\n        /* \"@openzeppelin/contracts/token/ERC20/utils/SafeERC20.sol\":4166:4189   */\n      0x00\n        /* \"@openzeppelin/contracts/token/ERC20/utils/SafeERC20.sol\":4192:4261   */\n      tag_171\n        /* \"@openzeppelin/contracts/token/ERC20/utils/SafeERC20.sol\":4220:4224   */\n      dup3\n        /* \"@openzeppelin/contracts/token/ERC20/utils/SafeERC20.sol\":4192:4261   */\n      mload(0x40)\n      dup1\n      0x40\n      add\n      0x40\n      mstore\n      dup1\n      0x20\n      dup2\n      mstore\n      0x20\n      add\n      0x5361666545524332303a206c6f772d6c6576656c2063616c6c206661696c6564\n      dup2\n      mstore\n      pop\n        /* \"@openzeppelin/contracts/token/ERC20/utils/SafeERC20.sol\":4200:4205   */\n      dup6\n      sub(shl(0xa0, 0x01), 0x01)\n        /* \"@openzeppelin/contracts/token/ERC20/utils/SafeERC20.sol\":4192:4219   */\n      and\n      tag_172\n      swap1\n        /* \"@openzeppelin/contracts/token/ERC20/utils/SafeERC20.sol\":4192:4261   */\n      swap3\n      swap2\n      swap1\n      0xffffffff\n      and\n      jump\t// in\n    tag_171:\n        /* \"@openzeppelin/contracts/token/ERC20/utils/SafeERC20.sol\":4275:4292   */\n      dup1\n      mload\n        /* \"@openzeppelin/contracts/token/ERC20/utils/SafeERC20.sol\":4166:4261   */\n      swap1\n      swap2\n      pop\n        /* \"@openzeppelin/contracts/token/ERC20/utils/SafeERC20.sol\":4275:4296   */\n      iszero\n        /* \"@openzeppelin/contracts/token/ERC20/utils/SafeERC20.sol\":4271:4447   */\n      tag_166\n      jumpi\n        /* \"@openzeppelin/contracts/token/ERC20/utils/SafeERC20.sol\":4370:4380   */\n      dup1\n        /* \"@openzeppelin/contracts/token/ERC20/utils/SafeERC20.sol\":4359:4389   */\n      dup1\n      0x20\n      add\n      swap1\n      mload\n      dup2\n      add\n      swap1\n      tag_174\n      swap2\n      swap1\n      tag_175\n      jump\t// in\n    tag_174:\n        /* \"@openzeppelin/contracts/token/ERC20/utils/SafeERC20.sol\":4351:4436   */\n      tag_166\n      jumpi\n      mload(0x40)\n      shl(0xe5, 0x461bcd)\n      dup2\n      mstore\n        /* \"#utility.yul\":6890:6892   */\n      0x20\n        /* \"@openzeppelin/contracts/token/ERC20/utils/SafeERC20.sol\":4351:4436   */\n      0x04\n      dup3\n      add\n        /* \"#utility.yul\":6872:6893   */\n      mstore\n        /* \"#utility.yul\":6929:6931   */\n      0x2a\n        /* \"#utility.yul\":6909:6927   */\n      0x24\n      dup3\n      add\n        /* \"#utility.yul\":6902:6932   */\n      mstore\n        /* \"#utility.yul\":6968:7002   */\n      0x5361666545524332303a204552433230206f7065726174696f6e20646964206e\n        /* \"#utility.yul\":6948:6966   */\n      0x44\n      dup3\n      add\n        /* \"#utility.yul\":6941:7003   */\n      mstore\n        /* \"#utility.yul\":7039:7051   */\n      0x6f74207375636365656400000000000000000000000000000000000000000000\n        /* \"#utility.yul\":7019:7037   */\n      0x64\n      dup3\n      add\n        /* \"#utility.yul\":7012:7052   */\n      mstore\n        /* \"#utility.yul\":7069:7088   */\n      0x84\n      add\n        /* \"@openzeppelin/contracts/token/ERC20/utils/SafeERC20.sol\":4351:4436   */\n      tag_57\n        /* \"#utility.yul\":6688:7094   */\n      jump\n        /* \"@openzeppelin/contracts/utils/Address.sol\":3873:4096   */\n    tag_172:\n        /* \"@openzeppelin/contracts/utils/Address.sol\":4006:4018   */\n      0x60\n        /* \"@openzeppelin/contracts/utils/Address.sol\":4037:4089   */\n      tag_180\n        /* \"@openzeppelin/contracts/utils/Address.sol\":4059:4065   */\n      dup5\n        /* \"@openzeppelin/contracts/utils/Address.sol\":4067:4071   */\n      dup5\n        /* \"@openzeppelin/contracts/utils/Address.sol\":4073:4074   */\n      0x00\n        /* \"@openzeppelin/contracts/utils/Address.sol\":4076:4088   */\n      dup6\n        /* \"@openzeppelin/contracts/utils/Address.sol\":4037:4058   */\n      tag_181\n        /* \"@openzeppelin/contracts/utils/Address.sol\":4037:4089   */\n      jump\t// in\n    tag_180:\n        /* \"@openzeppelin/contracts/utils/Address.sol\":4030:4089   */\n      swap5\n        /* \"@openzeppelin/contracts/utils/Address.sol\":3873:4096   */\n      swap4\n      pop\n      pop\n      pop\n      pop\n      jump\t// out\n        /* \"@openzeppelin/contracts/utils/Address.sol\":4960:5406   */\n    tag_181:\n        /* \"@openzeppelin/contracts/utils/Address.sol\":5125:5137   */\n      0x60\n        /* \"@openzeppelin/contracts/utils/Address.sol\":5182:5187   */\n      dup3\n        /* \"@openzeppelin/contracts/utils/Address.sol\":5157:5178   */\n      selfbalance\n        /* \"@openzeppelin/contracts/utils/Address.sol\":5157:5187   */\n      lt\n      iszero\n        /* \"@openzeppelin/contracts/utils/Address.sol\":5149:5230   */\n      tag_183\n      jumpi\n      mload(0x40)\n      shl(0xe5, 0x461bcd)\n      dup2\n      mstore\n        /* \"#utility.yul\":7301:7303   */\n      0x20\n        /* \"@openzeppelin/contracts/utils/Address.sol\":5149:5230   */\n      0x04\n      dup3\n      add\n        /* \"#utility.yul\":7283:7304   */\n      mstore\n        /* \"#utility.yul\":7340:7342   */\n      0x26\n        /* \"#utility.yul\":7320:7338   */\n      0x24\n      dup3\n      add\n        /* \"#utility.yul\":7313:7343   */\n      mstore\n        /* \"#utility.yul\":7379:7413   */\n      0x416464726573733a20696e73756666696369656e742062616c616e636520666f\n        /* \"#utility.yul\":7359:7377   */\n      0x44\n      dup3\n      add\n        /* \"#utility.yul\":7352:7414   */\n      mstore\n        /* \"#utility.yul\":7450:7458   */\n      0x722063616c6c0000000000000000000000000000000000000000000000000000\n        /* \"#utility.yul\":7430:7448   */\n      0x64\n      dup3\n      add\n        /* \"#utility.yul\":7423:7459   */\n      mstore\n        /* \"#utility.yul\":7476:7495   */\n      0x84\n      add\n        /* \"@openzeppelin/contracts/utils/Address.sol\":5149:5230   */\n      tag_57\n        /* \"#utility.yul\":7099:7501   */\n      jump\n        /* \"@openzeppelin/contracts/utils/Address.sol\":5149:5230   */\n    tag_183:\n        /* \"@openzeppelin/contracts/utils/Address.sol\":5241:5253   */\n      0x00\n        /* \"@openzeppelin/contracts/utils/Address.sol\":5255:5278   */\n      dup1\n        /* \"@openzeppelin/contracts/utils/Address.sol\":5282:5288   */\n      dup7\n      sub(shl(0xa0, 0x01), 0x01)\n        /* \"@openzeppelin/contracts/utils/Address.sol\":5282:5293   */\n      and\n        /* \"@openzeppelin/contracts/utils/Address.sol\":5301:5306   */\n      dup6\n        /* \"@openzeppelin/contracts/utils/Address.sol\":5308:5312   */\n      dup8\n        /* \"@openzeppelin/contracts/utils/Address.sol\":5282:5313   */\n      mload(0x40)\n      tag_186\n      swap2\n      swap1\n      tag_187\n      jump\t// in\n    tag_186:\n      0x00\n      mload(0x40)\n      dup1\n      dup4\n      sub\n      dup2\n      dup6\n      dup8\n      gas\n      call\n      swap3\n      pop\n      pop\n      pop\n      returndatasize\n      dup1\n      0x00\n      dup2\n      eq\n      tag_190\n      jumpi\n      mload(0x40)\n      swap2\n      pop\n      and(add(returndatasize, 0x3f), not(0x1f))\n      dup3\n      add\n      0x40\n      mstore\n      returndatasize\n      dup3\n      mstore\n      returndatasize\n      0x00\n      0x20\n      dup5\n      add\n      returndatacopy\n      jump(tag_189)\n    tag_190:\n      0x60\n      swap2\n      pop\n    tag_189:\n      pop\n        /* \"@openzeppelin/contracts/utils/Address.sol\":5240:5313   */\n      swap2\n      pop\n      swap2\n      pop\n        /* \"@openzeppelin/contracts/utils/Address.sol\":5330:5399   */\n      tag_191\n        /* \"@openzeppelin/contracts/utils/Address.sol\":5357:5363   */\n      dup8\n        /* \"@openzeppelin/contracts/utils/Address.sol\":5365:5372   */\n      dup4\n        /* \"@openzeppelin/contracts/utils/Address.sol\":5374:5384   */\n      dup4\n        /* \"@openzeppelin/contracts/utils/Address.sol\":5386:5398   */\n      dup8\n        /* \"@openzeppelin/contracts/utils/Address.sol\":5330:5356   */\n      tag_192\n        /* \"@openzeppelin/contracts/utils/Address.sol\":5330:5399   */\n      jump\t// in\n    tag_191:\n        /* \"@openzeppelin/contracts/utils/Address.sol\":5323:5399   */\n      swap8\n        /* \"@openzeppelin/contracts/utils/Address.sol\":4960:5406   */\n      swap7\n      pop\n      pop\n      pop\n      pop\n      pop\n      pop\n      pop\n      jump\t// out\n        /* \"@openzeppelin/contracts/utils/Address.sol\":7466:8094   */\n    tag_192:\n        /* \"@openzeppelin/contracts/utils/Address.sol\":7646:7658   */\n      0x60\n        /* \"@openzeppelin/contracts/utils/Address.sol\":7674:7681   */\n      dup4\n        /* \"@openzeppelin/contracts/utils/Address.sol\":7670:8088   */\n      iszero\n      tag_194\n      jumpi\n        /* \"@openzeppelin/contracts/utils/Address.sol\":7701:7711   */\n      dup3\n        /* \"@openzeppelin/contracts/utils/Address.sol\":7701:7718   */\n      mload\n        /* \"@openzeppelin/contracts/utils/Address.sol\":7722:7723   */\n      0x00\n        /* \"@openzeppelin/contracts/utils/Address.sol\":7701:7723   */\n      sub\n        /* \"@openzeppelin/contracts/utils/Address.sol\":7697:7983   */\n      tag_198\n      jumpi\n      sub(shl(0xa0, 0x01), 0x01)\n        /* \"@openzeppelin/contracts/utils/Address.sol\":1465:1484   */\n      dup6\n      and\n      extcodesize\n        /* \"@openzeppelin/contracts/utils/Address.sol\":7908:7968   */\n      tag_198\n      jumpi\n      mload(0x40)\n      shl(0xe5, 0x461bcd)\n      dup2\n      mstore\n        /* \"#utility.yul\":8250:8252   */\n      0x20\n        /* \"@openzeppelin/contracts/utils/Address.sol\":7908:7968   */\n      0x04\n      dup3\n      add\n        /* \"#utility.yul\":8232:8253   */\n      mstore\n        /* \"#utility.yul\":8289:8291   */\n      0x1d\n        /* \"#utility.yul\":8269:8287   */\n      0x24\n      dup3\n      add\n        /* \"#utility.yul\":8262:8292   */\n      mstore\n        /* \"#utility.yul\":8328:8359   */\n      0x416464726573733a2063616c6c20746f206e6f6e2d636f6e7472616374000000\n        /* \"#utility.yul\":8308:8326   */\n      0x44\n      dup3\n      add\n        /* \"#utility.yul\":8301:8360   */\n      mstore\n        /* \"#utility.yul\":8377:8395   */\n      0x64\n      add\n        /* \"@openzeppelin/contracts/utils/Address.sol\":7908:7968   */\n      tag_57\n        /* \"#utility.yul\":8048:8401   */\n      jump\n        /* \"@openzeppelin/contracts/utils/Address.sol\":7908:7968   */\n    tag_198:\n      pop\n        /* \"@openzeppelin/contracts/utils/Address.sol\":8003:8013   */\n      dup2\n        /* \"@openzeppelin/contracts/utils/Address.sol\":7996:8013   */\n      jump(tag_180)\n        /* \"@openzeppelin/contracts/utils/Address.sol\":7670:8088   */\n    tag_194:\n        /* \"@openzeppelin/contracts/utils/Address.sol\":8044:8077   */\n      tag_180\n        /* \"@openzeppelin/contracts/utils/Address.sol\":8052:8062   */\n      dup4\n        /* \"@openzeppelin/contracts/utils/Address.sol\":8064:8076   */\n      dup4\n        /* \"@openzeppelin/contracts/utils/Address.sol\":8775:8792   */\n      dup2\n      mload\n        /* \"@openzeppelin/contracts/utils/Address.sol\":8775:8796   */\n      iszero\n        /* \"@openzeppelin/contracts/utils/Address.sol\":8771:9150   */\n      tag_206\n      jumpi\n        /* \"@openzeppelin/contracts/utils/Address.sol\":9003:9013   */\n      dup2\n        /* \"@openzeppelin/contracts/utils/Address.sol\":8997:9014   */\n      mload\n        /* \"@openzeppelin/contracts/utils/Address.sol\":9059:9074   */\n      dup1\n        /* \"@openzeppelin/contracts/utils/Address.sol\":9046:9056   */\n      dup4\n        /* \"@openzeppelin/contracts/utils/Address.sol\":9042:9044   */\n      0x20\n        /* \"@openzeppelin/contracts/utils/Address.sol\":9038:9057   */\n      add\n        /* \"@openzeppelin/contracts/utils/Address.sol\":9031:9075   */\n      revert\n        /* \"@openzeppelin/contracts/utils/Address.sol\":8771:9150   */\n    tag_206:\n        /* \"@openzeppelin/contracts/utils/Address.sol\":9126:9138   */\n      dup1\n        /* \"@openzeppelin/contracts/utils/Address.sol\":9119:9139   */\n      mload(0x40)\n      shl(0xe5, 0x461bcd)\n      dup2\n      mstore\n      0x04\n      add\n      tag_57\n      swap2\n      swap1\n      tag_209\n      jump\t// in\n        /* \"#utility.yul\":14:194   */\n    tag_16:\n        /* \"#utility.yul\":73:79   */\n      0x00\n        /* \"#utility.yul\":126:128   */\n      0x20\n        /* \"#utility.yul\":114:123   */\n      dup3\n        /* \"#utility.yul\":105:112   */\n      dup5\n        /* \"#utility.yul\":101:124   */\n      sub\n        /* \"#utility.yul\":97:129   */\n      slt\n        /* \"#utility.yul\":94:146   */\n      iszero\n      tag_215\n      jumpi\n        /* \"#utility.yul\":142:143   */\n      0x00\n        /* \"#utility.yul\":139:140   */\n      dup1\n        /* \"#utility.yul\":132:144   */\n      revert\n        /* \"#utility.yul\":94:146   */\n    tag_215:\n      pop\n        /* \"#utility.yul\":165:188   */\n      calldataload\n      swap2\n        /* \"#utility.yul\":14:194   */\n      swap1\n      pop\n      jump\t// out\n        /* \"#utility.yul\":199:353   */\n    tag_210:\n      sub(shl(0xa0, 0x01), 0x01)\n        /* \"#utility.yul\":278:283   */\n      dup2\n        /* \"#utility.yul\":274:328   */\n      and\n        /* \"#utility.yul\":267:272   */\n      dup2\n        /* \"#utility.yul\":264:329   */\n      eq\n        /* \"#utility.yul\":254:347   */\n      tag_90\n      jumpi\n        /* \"#utility.yul\":343:344   */\n      0x00\n        /* \"#utility.yul\":340:341   */\n      dup1\n        /* \"#utility.yul\":333:345   */\n      revert\n        /* \"#utility.yul\":358:605   */\n    tag_22:\n        /* \"#utility.yul\":417:423   */\n      0x00\n        /* \"#utility.yul\":470:472   */\n      0x20\n        /* \"#utility.yul\":458:467   */\n      dup3\n        /* \"#utility.yul\":449:456   */\n      dup5\n        /* \"#utility.yul\":445:468   */\n      sub\n        /* \"#utility.yul\":441:473   */\n      slt\n        /* \"#utility.yul\":438:490   */\n      iszero\n      tag_219\n      jumpi\n        /* \"#utility.yul\":486:487   */\n      0x00\n        /* \"#utility.yul\":483:484   */\n      dup1\n        /* \"#utility.yul\":476:488   */\n      revert\n        /* \"#utility.yul\":438:490   */\n    tag_219:\n        /* \"#utility.yul\":525:534   */\n      dup2\n        /* \"#utility.yul\":512:535   */\n      calldataload\n        /* \"#utility.yul\":544:575   */\n      tag_151\n        /* \"#utility.yul\":569:574   */\n      dup2\n        /* \"#utility.yul\":544:575   */\n      tag_210\n      jump\t// in\n        /* \"#utility.yul\":610:1451   */\n    tag_25:\n        /* \"#utility.yul\":835:837   */\n      0x20\n        /* \"#utility.yul\":887:908   */\n      dup1\n      dup3\n      mstore\n        /* \"#utility.yul\":957:970   */\n      dup3\n      mload\n        /* \"#utility.yul\":860:878   */\n      dup3\n      dup3\n      add\n        /* \"#utility.yul\":979:1001   */\n      dup2\n      swap1\n      mstore\n        /* \"#utility.yul\":806:810   */\n      0x00\n      swap2\n        /* \"#utility.yul\":835:837   */\n      swap1\n        /* \"#utility.yul\":1020:1022   */\n      0x40\n      swap1\n        /* \"#utility.yul\":1038:1056   */\n      dup2\n      dup6\n      add\n      swap1\n        /* \"#utility.yul\":1079:1094   */\n      dup7\n      dup5\n      add\n        /* \"#utility.yul\":806:810   */\n      dup6\n        /* \"#utility.yul\":1122:1425   */\n    tag_222:\n        /* \"#utility.yul\":1136:1142   */\n      dup3\n        /* \"#utility.yul\":1133:1134   */\n      dup2\n        /* \"#utility.yul\":1130:1143   */\n      lt\n        /* \"#utility.yul\":1122:1425   */\n      iszero\n      tag_224\n      jumpi\n        /* \"#utility.yul\":1195:1208   */\n      dup2\n      mload\n        /* \"#utility.yul\":1237:1246   */\n      dup1\n      mload\n      sub(shl(0xa0, 0x01), 0x01)\n        /* \"#utility.yul\":1233:1291   */\n      and\n        /* \"#utility.yul\":1221:1292   */\n      dup6\n      mstore\n        /* \"#utility.yul\":1332:1343   */\n      dup7\n      add\n        /* \"#utility.yul\":1326:1344   */\n      mload\n        /* \"#utility.yul\":1312:1324   */\n      dup7\n      dup6\n      add\n        /* \"#utility.yul\":1305:1345   */\n      mstore\n        /* \"#utility.yul\":1365:1377   */\n      swap3\n      dup5\n      add\n      swap3\n        /* \"#utility.yul\":1400:1415   */\n      swap1\n      dup6\n      add\n      swap1\n        /* \"#utility.yul\":1158:1159   */\n      0x01\n        /* \"#utility.yul\":1151:1160   */\n      add\n        /* \"#utility.yul\":1122:1425   */\n      jump(tag_222)\n    tag_224:\n      pop\n        /* \"#utility.yul\":1442:1445   */\n      swap2\n      swap8\n        /* \"#utility.yul\":610:1451   */\n      swap7\n      pop\n      pop\n      pop\n      pop\n      pop\n      pop\n      pop\n      jump\t// out\n        /* \"#utility.yul\":3393:3520   */\n    tag_211:\n        /* \"#utility.yul\":3454:3464   */\n      0x4e487b71\n        /* \"#utility.yul\":3449:3452   */\n      0xe0\n        /* \"#utility.yul\":3445:3465   */\n      shl\n        /* \"#utility.yul\":3442:3443   */\n      0x00\n        /* \"#utility.yul\":3435:3466   */\n      mstore\n        /* \"#utility.yul\":3485:3489   */\n      0x11\n        /* \"#utility.yul\":3482:3483   */\n      0x04\n        /* \"#utility.yul\":3475:3490   */\n      mstore\n        /* \"#utility.yul\":3509:3513   */\n      0x24\n        /* \"#utility.yul\":3506:3507   */\n      0x00\n        /* \"#utility.yul\":3499:3514   */\n      revert\n        /* \"#utility.yul\":3525:3653   */\n    tag_65:\n        /* \"#utility.yul\":3565:3568   */\n      0x00\n        /* \"#utility.yul\":3596:3597   */\n      dup3\n        /* \"#utility.yul\":3592:3598   */\n      not\n        /* \"#utility.yul\":3589:3590   */\n      dup3\n        /* \"#utility.yul\":3586:3599   */\n      gt\n        /* \"#utility.yul\":3583:3622   */\n      iszero\n      tag_235\n      jumpi\n        /* \"#utility.yul\":3602:3620   */\n      tag_235\n      tag_211\n      jump\t// in\n    tag_235:\n      pop\n        /* \"#utility.yul\":3638:3647   */\n      add\n      swap1\n        /* \"#utility.yul\":3525:3653   */\n      jump\t// out\n        /* \"#utility.yul\":3658:3785   */\n    tag_71:\n        /* \"#utility.yul\":3719:3729   */\n      0x4e487b71\n        /* \"#utility.yul\":3714:3717   */\n      0xe0\n        /* \"#utility.yul\":3710:3730   */\n      shl\n        /* \"#utility.yul\":3707:3708   */\n      0x00\n        /* \"#utility.yul\":3700:3731   */\n      mstore\n        /* \"#utility.yul\":3750:3754   */\n      0x32\n        /* \"#utility.yul\":3747:3748   */\n      0x04\n        /* \"#utility.yul\":3740:3755   */\n      mstore\n        /* \"#utility.yul\":3774:3778   */\n      0x24\n        /* \"#utility.yul\":3771:3772   */\n      0x00\n        /* \"#utility.yul\":3764:3779   */\n      revert\n        /* \"#utility.yul\":3790:3925   */\n    tag_79:\n        /* \"#utility.yul\":3829:3832   */\n      0x00\n        /* \"#utility.yul\":3850:3867   */\n      0x01\n      dup3\n      add\n        /* \"#utility.yul\":3847:3890   */\n      tag_239\n      jumpi\n        /* \"#utility.yul\":3870:3888   */\n      tag_239\n      tag_211\n      jump\t// in\n    tag_239:\n      pop\n        /* \"#utility.yul\":3917:3918   */\n      0x01\n        /* \"#utility.yul\":3906:3919   */\n      add\n      swap1\n        /* \"#utility.yul\":3790:3925   */\n      jump\t// out\n        /* \"#utility.yul\":3930:4066   */\n    tag_84:\n        /* \"#utility.yul\":3969:3972   */\n      0x00\n        /* \"#utility.yul\":3997:4002   */\n      dup2\n        /* \"#utility.yul\":3987:4026   */\n      tag_242\n      jumpi\n        /* \"#utility.yul\":4006:4024   */\n      tag_242\n      tag_211\n      jump\t// in\n    tag_242:\n      pop\n      not(0x00)\n        /* \"#utility.yul\":4042:4060   */\n      add\n      swap1\n        /* \"#utility.yul\":3930:4066   */\n      jump\t// out\n        /* \"#utility.yul\":4831:4958   */\n    tag_104:\n        /* \"#utility.yul\":4892:4902   */\n      0x4e487b71\n        /* \"#utility.yul\":4887:4890   */\n      0xe0\n        /* \"#utility.yul\":4883:4903   */\n      shl\n        /* \"#utility.yul\":4880:4881   */\n      0x00\n        /* \"#utility.yul\":4873:4904   */\n      mstore\n        /* \"#utility.yul\":4923:4927   */\n      0x41\n        /* \"#utility.yul\":4920:4921   */\n      0x04\n        /* \"#utility.yul\":4913:4928   */\n      mstore\n        /* \"#utility.yul\":4947:4951   */\n      0x24\n        /* \"#utility.yul\":4944:4945   */\n      0x00\n        /* \"#utility.yul\":4937:4952   */\n      revert\n        /* \"#utility.yul\":4963:5214   */\n    tag_139:\n        /* \"#utility.yul\":5033:5039   */\n      0x00\n        /* \"#utility.yul\":5086:5088   */\n      0x20\n        /* \"#utility.yul\":5074:5083   */\n      dup3\n        /* \"#utility.yul\":5065:5072   */\n      dup5\n        /* \"#utility.yul\":5061:5084   */\n      sub\n        /* \"#utility.yul\":5057:5089   */\n      slt\n        /* \"#utility.yul\":5054:5106   */\n      iszero\n      tag_247\n      jumpi\n        /* \"#utility.yul\":5102:5103   */\n      0x00\n        /* \"#utility.yul\":5099:5100   */\n      dup1\n        /* \"#utility.yul\":5092:5104   */\n      revert\n        /* \"#utility.yul\":5054:5106   */\n    tag_247:\n        /* \"#utility.yul\":5134:5143   */\n      dup2\n        /* \"#utility.yul\":5128:5144   */\n      mload\n        /* \"#utility.yul\":5153:5184   */\n      tag_151\n        /* \"#utility.yul\":5178:5183   */\n      dup2\n        /* \"#utility.yul\":5153:5184   */\n      tag_210\n      jump\t// in\n        /* \"#utility.yul\":5579:5704   */\n    tag_158:\n        /* \"#utility.yul\":5619:5623   */\n      0x00\n        /* \"#utility.yul\":5647:5648   */\n      dup3\n        /* \"#utility.yul\":5644:5645   */\n      dup3\n        /* \"#utility.yul\":5641:5649   */\n      lt\n        /* \"#utility.yul\":5638:5672   */\n      iszero\n      tag_252\n      jumpi\n        /* \"#utility.yul\":5652:5670   */\n      tag_252\n      tag_211\n      jump\t// in\n    tag_252:\n      pop\n        /* \"#utility.yul\":5689:5698   */\n      sub\n      swap1\n        /* \"#utility.yul\":5579:5704   */\n      jump\t// out\n        /* \"#utility.yul\":5709:5877   */\n    tag_160:\n        /* \"#utility.yul\":5749:5756   */\n      0x00\n        /* \"#utility.yul\":5815:5816   */\n      dup2\n        /* \"#utility.yul\":5811:5812   */\n      0x00\n        /* \"#utility.yul\":5807:5813   */\n      not\n        /* \"#utility.yul\":5803:5817   */\n      div\n        /* \"#utility.yul\":5800:5801   */\n      dup4\n        /* \"#utility.yul\":5797:5818   */\n      gt\n        /* \"#utility.yul\":5792:5793   */\n      dup3\n        /* \"#utility.yul\":5785:5794   */\n      iszero\n        /* \"#utility.yul\":5778:5795   */\n      iszero\n        /* \"#utility.yul\":5774:5819   */\n      and\n        /* \"#utility.yul\":5771:5842   */\n      iszero\n      tag_255\n      jumpi\n        /* \"#utility.yul\":5822:5840   */\n      tag_255\n      tag_211\n      jump\t// in\n    tag_255:\n      pop\n        /* \"#utility.yul\":5862:5871   */\n      mul\n      swap1\n        /* \"#utility.yul\":5709:5877   */\n      jump\t// out\n        /* \"#utility.yul\":5882:6099   */\n    tag_163:\n        /* \"#utility.yul\":5922:5923   */\n      0x00\n        /* \"#utility.yul\":5948:5949   */\n      dup3\n        /* \"#utility.yul\":5938:6070   */\n      tag_257\n      jumpi\n        /* \"#utility.yul\":5992:6002   */\n      0x4e487b71\n        /* \"#utility.yul\":5987:5990   */\n      0xe0\n        /* \"#utility.yul\":5983:6003   */\n      shl\n        /* \"#utility.yul\":5980:5981   */\n      0x00\n        /* \"#utility.yul\":5973:6004   */\n      mstore\n        /* \"#utility.yul\":6027:6031   */\n      0x12\n        /* \"#utility.yul\":6024:6025   */\n      0x04\n        /* \"#utility.yul\":6017:6032   */\n      mstore\n        /* \"#utility.yul\":6055:6059   */\n      0x24\n        /* \"#utility.yul\":6052:6053   */\n      0x00\n        /* \"#utility.yul\":6045:6060   */\n      revert\n        /* \"#utility.yul\":5938:6070   */\n    tag_257:\n      pop\n        /* \"#utility.yul\":6084:6093   */\n      div\n      swap1\n        /* \"#utility.yul\":5882:6099   */\n      jump\t// out\n        /* \"#utility.yul\":6406:6683   */\n    tag_175:\n        /* \"#utility.yul\":6473:6479   */\n      0x00\n        /* \"#utility.yul\":6526:6528   */\n      0x20\n        /* \"#utility.yul\":6514:6523   */\n      dup3\n        /* \"#utility.yul\":6505:6512   */\n      dup5\n        /* \"#utility.yul\":6501:6524   */\n      sub\n        /* \"#utility.yul\":6497:6529   */\n      slt\n        /* \"#utility.yul\":6494:6546   */\n      iszero\n      tag_260\n      jumpi\n        /* \"#utility.yul\":6542:6543   */\n      0x00\n        /* \"#utility.yul\":6539:6540   */\n      dup1\n        /* \"#utility.yul\":6532:6544   */\n      revert\n        /* \"#utility.yul\":6494:6546   */\n    tag_260:\n        /* \"#utility.yul\":6574:6583   */\n      dup2\n        /* \"#utility.yul\":6568:6584   */\n      mload\n        /* \"#utility.yul\":6627:6632   */\n      dup1\n        /* \"#utility.yul\":6620:6633   */\n      iszero\n        /* \"#utility.yul\":6613:6634   */\n      iszero\n        /* \"#utility.yul\":6606:6611   */\n      dup2\n        /* \"#utility.yul\":6603:6635   */\n      eq\n        /* \"#utility.yul\":6593:6653   */\n      tag_151\n      jumpi\n        /* \"#utility.yul\":6649:6650   */\n      0x00\n        /* \"#utility.yul\":6646:6647   */\n      dup1\n        /* \"#utility.yul\":6639:6651   */\n      revert\n        /* \"#utility.yul\":7506:7764   */\n    tag_212:\n        /* \"#utility.yul\":7578:7579   */\n      0x00\n        /* \"#utility.yul\":7588:7701   */\n    tag_265:\n        /* \"#utility.yul\":7602:7608   */\n      dup4\n        /* \"#utility.yul\":7599:7600   */\n      dup2\n        /* \"#utility.yul\":7596:7609   */\n      lt\n        /* \"#utility.yul\":7588:7701   */\n      iszero\n      tag_267\n      jumpi\n        /* \"#utility.yul\":7678:7689   */\n      dup2\n      dup2\n      add\n        /* \"#utility.yul\":7672:7690   */\n      mload\n        /* \"#utility.yul\":7659:7670   */\n      dup4\n      dup3\n      add\n        /* \"#utility.yul\":7652:7691   */\n      mstore\n        /* \"#utility.yul\":7624:7626   */\n      0x20\n        /* \"#utility.yul\":7617:7627   */\n      add\n        /* \"#utility.yul\":7588:7701   */\n      jump(tag_265)\n    tag_267:\n        /* \"#utility.yul\":7719:7725   */\n      dup4\n        /* \"#utility.yul\":7716:7717   */\n      dup2\n        /* \"#utility.yul\":7713:7726   */\n      gt\n        /* \"#utility.yul\":7710:7758   */\n      iszero\n      tag_268\n      jumpi\n        /* \"#utility.yul\":7754:7755   */\n      0x00\n        /* \"#utility.yul\":7745:7751   */\n      dup5\n        /* \"#utility.yul\":7740:7743   */\n      dup5\n        /* \"#utility.yul\":7736:7752   */\n      add\n        /* \"#utility.yul\":7729:7756   */\n      mstore\n        /* \"#utility.yul\":7710:7758   */\n    tag_268:\n      pop\n        /* \"#utility.yul\":7506:7764   */\n      pop\n      pop\n      pop\n      jump\t// out\n        /* \"#utility.yul\":7769:8043   */\n    tag_187:\n        /* \"#utility.yul\":7898:7901   */\n      0x00\n        /* \"#utility.yul\":7936:7942   */\n      dup3\n        /* \"#utility.yul\":7930:7943   */\n      mload\n        /* \"#utility.yul\":7952:8005   */\n      tag_270\n        /* \"#utility.yul\":7998:8004   */\n      dup2\n        /* \"#utility.yul\":7993:7996   */\n      dup5\n        /* \"#utility.yul\":7986:7990   */\n      0x20\n        /* \"#utility.yul\":7978:7984   */\n      dup8\n        /* \"#utility.yul\":7974:7991   */\n      add\n        /* \"#utility.yul\":7952:8005   */\n      tag_212\n      jump\t// in\n    tag_270:\n        /* \"#utility.yul\":8021:8037   */\n      swap2\n      swap1\n      swap2\n      add\n      swap3\n        /* \"#utility.yul\":7769:8043   */\n      swap2\n      pop\n      pop\n      jump\t// out\n        /* \"#utility.yul\":8406:8789   */\n    tag_209:\n        /* \"#utility.yul\":8555:8557   */\n      0x20\n        /* \"#utility.yul\":8544:8553   */\n      dup2\n        /* \"#utility.yul\":8537:8558   */\n      mstore\n        /* \"#utility.yul\":8518:8522   */\n      0x00\n        /* \"#utility.yul\":8587:8593   */\n      dup3\n        /* \"#utility.yul\":8581:8594   */\n      mload\n        /* \"#utility.yul\":8630:8636   */\n      dup1\n        /* \"#utility.yul\":8625:8627   */\n      0x20\n        /* \"#utility.yul\":8614:8623   */\n      dup5\n        /* \"#utility.yul\":8610:8628   */\n      add\n        /* \"#utility.yul\":8603:8637   */\n      mstore\n        /* \"#utility.yul\":8646:8712   */\n      tag_273\n        /* \"#utility.yul\":8705:8711   */\n      dup2\n        /* \"#utility.yul\":8700:8702   */\n      0x40\n        /* \"#utility.yul\":8689:8698   */\n      dup6\n        /* \"#utility.yul\":8685:8703   */\n      add\n        /* \"#utility.yul\":8680:8682   */\n      0x20\n        /* \"#utility.yul\":8672:8678   */\n      dup8\n        /* \"#utility.yul\":8668:8683   */\n      add\n        /* \"#utility.yul\":8646:8712   */\n      tag_212\n      jump\t// in\n    tag_273:\n        /* \"#utility.yul\":8773:8775   */\n      0x1f\n        /* \"#utility.yul\":8752:8767   */\n      add\n      not(0x1f)\n        /* \"#utility.yul\":8748:8777   */\n      and\n        /* \"#utility.yul\":8733:8778   */\n      swap2\n      swap1\n      swap2\n      add\n        /* \"#utility.yul\":8780:8782   */\n      0x40\n        /* \"#utility.yul\":8729:8783   */\n      add\n      swap3\n        /* \"#utility.yul\":8406:8789   */\n      swap2\n      pop\n      pop\n      jump\t// out\n\n    auxdata: 0xa2646970667358221220475f1558e4d383cce2d1bea7e29f238f2368b4ba064897d92cac57ef2362a25d64736f6c634300080d0033\n}\n",
    "bytecode": {
      "linkReferences": {},
      "object": "60c0604052620186a060015534801561001757600080fd5b506040516111793803806111798339810160408190526100369161006a565b60016000556001600160a01b0391821660a052166080526100a4565b6001600160a01b038116811461006757600080fd5b50565b6000806040838503121561007d57600080fd5b825161008881610052565b602084015190925061009981610052565b809150509250929050565b60805160a0516110956100e46000396000818160f3015281816104750152818161083201526109150152600081816101b7015261059301526110956000f3fe608060405234801561001057600080fd5b50600436106100a35760003560e01c80639168ae7211610076578063a694fc3a1161005b578063a694fc3a1461019f578063d1af0c7d146101b2578063f854a27f146101d957600080fd5b80639168ae721461012d578063940670451461017657600080fd5b80632e1a7d4d146100a8578063372500ab146100bd57806363c28db1146100c55780636588103b146100ee575b600080fd5b6100bb6100b6366004610e1c565b6101fa565b005b6100bb6104f6565b6100d86100d3366004610e4a565b6105c2565b6040516100e59190610e67565b60405180910390f35b6101157f000000000000000000000000000000000000000000000000000000000000000081565b6040516001600160a01b0390911681526020016100e5565b61015b61013b366004610e4a565b600260208190526000918252604090912080549181015460039091015483565b604080519384526020840192909252908201526060016100e5565b610115610184366004610e1c565b6003602052600090815260409020546001600160a01b031681565b6100bb6101ad366004610e1c565b6107bc565b6101157f000000000000000000000000000000000000000000000000000000000000000081565b6101ec6101e7366004610e4a565b610a33565b6040519081526020016100e5565b610202610a6b565b336000908152600260205260409020546102635760405162461bcd60e51b815260206004820152601960248201527f596f752068617665206e6f20746f6b656e73207374616b65640000000000000060448201526064015b60405180910390fd5b6000818152600360205260409020546001600160a01b031633146102c95760405162461bcd60e51b815260206004820152601960248201527f596f7520646f6e2774206f776e207468697320746f6b656e2100000000000000604482015260640161025a565b60006102d433610ac4565b336000908152600260205260408120600301805492935083929091906102fb908490610ed5565b9091555060009050805b336000908152600260205260409020600101548110156103c05733600090815260026020526040902060010180548591908390811061034657610346610eed565b9060005260206000209060020201600101541480156103a1575033600090815260026020526040812060010180548390811061038457610384610eed565b60009182526020909120600290910201546001600160a01b031614155b156103ae578091506103c0565b806103b881610f03565b915050610305565b503360009081526002602052604081206001018054839081106103e5576103e5610eed565b6000918252602080832060029283020180546001600160a01b0319166001600160a01b0395909516949094179093553382529091526040812080549161042a83610f1c565b90915550506000838152600360205260409081902080546001600160a01b0319169055516323b872dd60e01b8152306004820152336024820152604481018490526001600160a01b037f000000000000000000000000000000000000000000000000000000000000000016906323b872dd90606401600060405180830381600087803b1580156104b957600080fd5b505af11580156104cd573d6000803e3d6000fd5b505033600090815260026020819052604090912042910155506104f39250610b1d915050565b50565b33600081815260026020526040812060030154909161051490610ac4565b61051e9190610ed5565b9050600081116105705760405162461bcd60e51b815260206004820152601c60248201527f596f752068617665206e6f207265776172647320746f20636c61696d00000000604482015260640161025a565b33600081815260026020819052604082204291810191909155600301556104f3907f00000000000000000000000000000000000000000000000000000000000000006001600160a01b03169083610b24565b6001600160a01b03811660009081526002602052604090205460609015610778576001600160a01b03821660009081526002602052604081205467ffffffffffffffff81111561061457610614610f33565b60405190808252806020026020018201604052801561065957816020015b60408051808201909152600080825260208201528152602001906001900390816106325790505b5090506000805b6001600160a01b03851660009081526002602052604090206001015481101561076f576001600160a01b03851660009081526002602052604081206001018054839081106106b0576106b0610eed565b60009182526020909120600290910201546001600160a01b03161461075d576001600160a01b03851660009081526002602052604090206001018054829081106106fc576106fc610eed565b60009182526020918290206040805180820190915260029092020180546001600160a01b031682526001015491810191909152835184908490811061074357610743610eed565b6020026020010181905250818061075990610f03565b9250505b8061076781610f03565b915050610660565b50909392505050565b60408051600080825260208201909252906107b5565b604080518082019091526000808252602082015281526020019060019003908161078e5790505b5092915050565b6107c4610a6b565b33600090815260026020526040902054156108125760006107e433610ac4565b3360009081526002602052604081206003018054929350839290919061080b908490610ed5565b9091555050505b6040516331a9108f60e11b81526004810182905233906001600160a01b037f00000000000000000000000000000000000000000000000000000000000000001690636352211e90602401602060405180830381865afa158015610879573d6000803e3d6000fd5b505050506040513d601f19601f8201168201806040525081019061089d9190610f49565b6001600160a01b0316146108f35760405162461bcd60e51b815260206004820152601960248201527f596f7520646f6e2774206f776e207468697320746f6b656e2100000000000000604482015260640161025a565b6040516323b872dd60e01b8152336004820152306024820152604481018290527f00000000000000000000000000000000000000000000000000000000000000006001600160a01b0316906323b872dd90606401600060405180830381600087803b15801561096157600080fd5b505af1158015610975573d6000803e3d6000fd5b50506040805180820182523380825260208083018781526000838152600280845295812060018082018054808301825590845294832087519590980290970180546001600160a01b0319166001600160a01b03909516949094178455915192909501919091559083528054919450909250906109f083610f03565b909155505050600081815260036020908152604080832080546001600160a01b031916339081179091558352600291829052909120429101556104f36001600055565b6001600160a01b0381166000908152600260205260408120600301548190610a5a84610ac4565b610a649190610ed5565b9392505050565b600260005403610abd5760405162461bcd60e51b815260206004820152601f60248201527f5265656e7472616e637947756172643a207265656e7472616e742063616c6c00604482015260640161025a565b6002600055565b6001546001600160a01b0382166000908152600260208190526040822080549101549192610e1092909190610af99042610f66565b610b039190610f7d565b610b0d9190610f7d565b610b179190610f9c565b92915050565b6001600055565b604080516001600160a01b038416602482015260448082018490528251808303909101815260649091019091526020810180517bffffffffffffffffffffffffffffffffffffffffffffffffffffffff1663a9059cbb60e01b179052610b8b908490610b90565b505050565b6000610be5826040518060400160405280602081526020017f5361666545524332303a206c6f772d6c6576656c2063616c6c206661696c6564815250856001600160a01b0316610c759092919063ffffffff16565b805190915015610b8b5780806020019051810190610c039190610fbe565b610b8b5760405162461bcd60e51b815260206004820152602a60248201527f5361666545524332303a204552433230206f7065726174696f6e20646964206e60448201527f6f74207375636365656400000000000000000000000000000000000000000000606482015260840161025a565b6060610c848484600085610c8c565b949350505050565b606082471015610d045760405162461bcd60e51b815260206004820152602660248201527f416464726573733a20696e73756666696369656e742062616c616e636520666f60448201527f722063616c6c0000000000000000000000000000000000000000000000000000606482015260840161025a565b600080866001600160a01b03168587604051610d209190611010565b60006040518083038185875af1925050503d8060008114610d5d576040519150601f19603f3d011682016040523d82523d6000602084013e610d62565b606091505b5091509150610d7387838387610d7e565b979650505050505050565b60608315610ded578251600003610de6576001600160a01b0385163b610de65760405162461bcd60e51b815260206004820152601d60248201527f416464726573733a2063616c6c20746f206e6f6e2d636f6e7472616374000000604482015260640161025a565b5081610c84565b610c848383815115610e025781518083602001fd5b8060405162461bcd60e51b815260040161025a919061102c565b600060208284031215610e2e57600080fd5b5035919050565b6001600160a01b03811681146104f357600080fd5b600060208284031215610e5c57600080fd5b8135610a6481610e35565b602080825282518282018190526000919060409081850190868401855b82811015610eb257815180516001600160a01b03168552860151868501529284019290850190600101610e84565b5091979650505050505050565b634e487b7160e01b600052601160045260246000fd5b60008219821115610ee857610ee8610ebf565b500190565b634e487b7160e01b600052603260045260246000fd5b600060018201610f1557610f15610ebf565b5060010190565b600081610f2b57610f2b610ebf565b506000190190565b634e487b7160e01b600052604160045260246000fd5b600060208284031215610f5b57600080fd5b8151610a6481610e35565b600082821015610f7857610f78610ebf565b500390565b6000816000190483118215151615610f9757610f97610ebf565b500290565b600082610fb957634e487b7160e01b600052601260045260246000fd5b500490565b600060208284031215610fd057600080fd5b81518015158114610a6457600080fd5b60005b83811015610ffb578181015183820152602001610fe3565b8381111561100a576000848401525b50505050565b60008251611022818460208701610fe0565b9190910192915050565b602081526000825180602084015261104b816040850160208701610fe0565b601f01601f1916919091016040019291505056fea2646970667358221220475f1558e4d383cce2d1bea7e29f238f2368b4ba064897d92cac57ef2362a25d64736f6c634300080d0033",
      "opcodes": "PUSH1 0xC0 PUSH1 0x40 MSTORE PUSH3 0x186A0 PUSH1 0x1 SSTORE CALLVALUE DUP1 ISZERO PUSH2 0x17 JUMPI PUSH1 0x0 DUP1 REVERT JUMPDEST POP PUSH1 0x40 MLOAD PUSH2 0x1179 CODESIZE SUB DUP1 PUSH2 0x1179 DUP4 CODECOPY DUP2 ADD PUSH1 0x40 DUP2 SWAP1 MSTORE PUSH2 0x36 SWAP2 PUSH2 0x6A JUMP JUMPDEST PUSH1 0x1 PUSH1 0x0 SSTORE PUSH1 0x1 PUSH1 0x1 PUSH1 0xA0 SHL SUB SWAP2 DUP3 AND PUSH1 0xA0 MSTORE AND PUSH1 0x80 MSTORE PUSH2 0xA4 JUMP JUMPDEST PUSH1 0x1 PUSH1 0x1 PUSH1 0xA0 SHL SUB DUP2 AND DUP2 EQ PUSH2 0x67 JUMPI PUSH1 0x0 DUP1 REVERT JUMPDEST POP JUMP JUMPDEST PUSH1 0x0 DUP1 PUSH1 0x40 DUP4 DUP6 SUB SLT ISZERO PUSH2 0x7D JUMPI PUSH1 0x0 DUP1 REVERT JUMPDEST DUP3 MLOAD PUSH2 0x88 DUP2 PUSH2 0x52 JUMP JUMPDEST PUSH1 0x20 DUP5 ADD MLOAD SWAP1 SWAP3 POP PUSH2 0x99 DUP2 PUSH2 0x52 JUMP JUMPDEST DUP1 SWAP2 POP POP SWAP3 POP SWAP3 SWAP1 POP JUMP JUMPDEST PUSH1 0x80 MLOAD PUSH1 0xA0 MLOAD PUSH2 0x1095 PUSH2 0xE4 PUSH1 0x0 CODECOPY PUSH1 0x0 DUP2 DUP2 PUSH1 0xF3 ADD MSTORE DUP2 DUP2 PUSH2 0x475 ADD MSTORE DUP2 DUP2 PUSH2 0x832 ADD MSTORE PUSH2 0x915 ADD MSTORE PUSH1 0x0 DUP2 DUP2 PUSH2 0x1B7 ADD MSTORE PUSH2 0x593 ADD MSTORE PUSH2 0x1095 PUSH1 0x0 RETURN INVALID PUSH1 0x80 PUSH1 0x40 MSTORE CALLVALUE DUP1 ISZERO PUSH2 0x10 JUMPI PUSH1 0x0 DUP1 REVERT JUMPDEST POP PUSH1 0x4 CALLDATASIZE LT PUSH2 0xA3 JUMPI PUSH1 0x0 CALLDATALOAD PUSH1 0xE0 SHR DUP1 PUSH4 0x9168AE72 GT PUSH2 0x76 JUMPI DUP1 PUSH4 0xA694FC3A GT PUSH2 0x5B JUMPI DUP1 PUSH4 0xA694FC3A EQ PUSH2 0x19F JUMPI DUP1 PUSH4 0xD1AF0C7D EQ PUSH2 0x1B2 JUMPI DUP1 PUSH4 0xF854A27F EQ PUSH2 0x1D9 JUMPI PUSH1 0x0 DUP1 REVERT JUMPDEST DUP1 PUSH4 0x9168AE72 EQ PUSH2 0x12D JUMPI DUP1 PUSH4 0x94067045 EQ PUSH2 0x176 JUMPI PUSH1 0x0 DUP1 REVERT JUMPDEST DUP1 PUSH4 0x2E1A7D4D EQ PUSH2 0xA8 JUMPI DUP1 PUSH4 0x372500AB EQ PUSH2 0xBD JUMPI DUP1 PUSH4 0x63C28DB1 EQ PUSH2 0xC5 JUMPI DUP1 PUSH4 0x6588103B EQ PUSH2 0xEE JUMPI JUMPDEST PUSH1 0x0 DUP1 REVERT JUMPDEST PUSH2 0xBB PUSH2 0xB6 CALLDATASIZE PUSH1 0x4 PUSH2 0xE1C JUMP JUMPDEST PUSH2 0x1FA JUMP JUMPDEST STOP JUMPDEST PUSH2 0xBB PUSH2 0x4F6 JUMP JUMPDEST PUSH2 0xD8 PUSH2 0xD3 CALLDATASIZE PUSH1 0x4 PUSH2 0xE4A JUMP JUMPDEST PUSH2 0x5C2 JUMP JUMPDEST PUSH1 0x40 MLOAD PUSH2 0xE5 SWAP2 SWAP1 PUSH2 0xE67 JUMP JUMPDEST PUSH1 0x40 MLOAD DUP1 SWAP2 SUB SWAP1 RETURN JUMPDEST PUSH2 0x115 PUSH32 0x0 DUP2 JUMP JUMPDEST PUSH1 0x40 MLOAD PUSH1 0x1 PUSH1 0x1 PUSH1 0xA0 SHL SUB SWAP1 SWAP2 AND DUP2 MSTORE PUSH1 0x20 ADD PUSH2 0xE5 JUMP JUMPDEST PUSH2 0x15B PUSH2 0x13B CALLDATASIZE PUSH1 0x4 PUSH2 0xE4A JUMP JUMPDEST PUSH1 0x2 PUSH1 0x20 DUP2 SWAP1 MSTORE PUSH1 0x0 SWAP2 DUP3 MSTORE PUSH1 0x40 SWAP1 SWAP2 KECCAK256 DUP1 SLOAD SWAP2 DUP2 ADD SLOAD PUSH1 0x3 SWAP1 SWAP2 ADD SLOAD DUP4 JUMP JUMPDEST PUSH1 0x40 DUP1 MLOAD SWAP4 DUP5 MSTORE PUSH1 0x20 DUP5 ADD SWAP3 SWAP1 SWAP3 MSTORE SWAP1 DUP3 ADD MSTORE PUSH1 0x60 ADD PUSH2 0xE5 JUMP JUMPDEST PUSH2 0x115 PUSH2 0x184 CALLDATASIZE PUSH1 0x4 PUSH2 0xE1C JUMP JUMPDEST PUSH1 0x3 PUSH1 0x20 MSTORE PUSH1 0x0 SWAP1 DUP2 MSTORE PUSH1 0x40 SWAP1 KECCAK256 SLOAD PUSH1 0x1 PUSH1 0x1 PUSH1 0xA0 SHL SUB AND DUP2 JUMP JUMPDEST PUSH2 0xBB PUSH2 0x1AD CALLDATASIZE PUSH1 0x4 PUSH2 0xE1C JUMP JUMPDEST PUSH2 0x7BC JUMP JUMPDEST PUSH2 0x115 PUSH32 0x0 DUP2 JUMP JUMPDEST PUSH2 0x1EC PUSH2 0x1E7 CALLDATASIZE PUSH1 0x4 PUSH2 0xE4A JUMP JUMPDEST PUSH2 0xA33 JUMP JUMPDEST PUSH1 0x40 MLOAD SWAP1 DUP2 MSTORE PUSH1 0x20 ADD PUSH2 0xE5 JUMP JUMPDEST PUSH2 0x202 PUSH2 0xA6B JUMP JUMPDEST CALLER PUSH1 0x0 SWAP1 DUP2 MSTORE PUSH1 0x2 PUSH1 0x20 MSTORE PUSH1 0x40 SWAP1 KECCAK256 SLOAD PUSH2 0x263 JUMPI PUSH1 0x40 MLOAD PUSH3 0x461BCD PUSH1 0xE5 SHL DUP2 MSTORE PUSH1 0x20 PUSH1 0x4 DUP3 ADD MSTORE PUSH1 0x19 PUSH1 0x24 DUP3 ADD MSTORE PUSH32 0x596F752068617665206E6F20746F6B656E73207374616B656400000000000000 PUSH1 0x44 DUP3 ADD MSTORE PUSH1 0x64 ADD JUMPDEST PUSH1 0x40 MLOAD DUP1 SWAP2 SUB SWAP1 REVERT JUMPDEST PUSH1 0x0 DUP2 DUP2 MSTORE PUSH1 0x3 PUSH1 0x20 MSTORE PUSH1 0x40 SWAP1 KECCAK256 SLOAD PUSH1 0x1 PUSH1 0x1 PUSH1 0xA0 SHL SUB AND CALLER EQ PUSH2 0x2C9 JUMPI PUSH1 0x40 MLOAD PUSH3 0x461BCD PUSH1 0xE5 SHL DUP2 MSTORE PUSH1 0x20 PUSH1 0x4 DUP3 ADD MSTORE PUSH1 0x19 PUSH1 0x24 DUP3 ADD MSTORE PUSH32 0x596F7520646F6E2774206F776E207468697320746F6B656E2100000000000000 PUSH1 0x44 DUP3 ADD MSTORE PUSH1 0x64 ADD PUSH2 0x25A JUMP JUMPDEST PUSH1 0x0 PUSH2 0x2D4 CALLER PUSH2 0xAC4 JUMP JUMPDEST CALLER PUSH1 0x0 SWAP1 DUP2 MSTORE PUSH1 0x2 PUSH1 0x20 MSTORE PUSH1 0x40 DUP2 KECCAK256 PUSH1 0x3 ADD DUP1 SLOAD SWAP3 SWAP4 POP DUP4 SWAP3 SWAP1 SWAP2 SWAP1 PUSH2 0x2FB SWAP1 DUP5 SWAP1 PUSH2 0xED5 JUMP JUMPDEST SWAP1 SWAP2 SSTORE POP PUSH1 0x0 SWAP1 POP DUP1 JUMPDEST CALLER PUSH1 0x0 SWAP1 DUP2 MSTORE PUSH1 0x2 PUSH1 0x20 MSTORE PUSH1 0x40 SWAP1 KECCAK256 PUSH1 0x1 ADD SLOAD DUP2 LT ISZERO PUSH2 0x3C0 JUMPI CALLER PUSH1 0x0 SWAP1 DUP2 MSTORE PUSH1 0x2 PUSH1 0x20 MSTORE PUSH1 0x40 SWAP1 KECCAK256 PUSH1 0x1 ADD DUP1 SLOAD DUP6 SWAP2 SWAP1 DUP4 SWAP1 DUP2 LT PUSH2 0x346 JUMPI PUSH2 0x346 PUSH2 0xEED JUMP JUMPDEST SWAP1 PUSH1 0x0 MSTORE PUSH1 0x20 PUSH1 0x0 KECCAK256 SWAP1 PUSH1 0x2 MUL ADD PUSH1 0x1 ADD SLOAD EQ DUP1 ISZERO PUSH2 0x3A1 JUMPI POP CALLER PUSH1 0x0 SWAP1 DUP2 MSTORE PUSH1 0x2 PUSH1 0x20 MSTORE PUSH1 0x40 DUP2 KECCAK256 PUSH1 0x1 ADD DUP1 SLOAD DUP4 SWAP1 DUP2 LT PUSH2 0x384 JUMPI PUSH2 0x384 PUSH2 0xEED JUMP JUMPDEST PUSH1 0x0 SWAP2 DUP3 MSTORE PUSH1 0x20 SWAP1 SWAP2 KECCAK256 PUSH1 0x2 SWAP1 SWAP2 MUL ADD SLOAD PUSH1 0x1 PUSH1 0x1 PUSH1 0xA0 SHL SUB AND EQ ISZERO JUMPDEST ISZERO PUSH2 0x3AE JUMPI DUP1 SWAP2 POP PUSH2 0x3C0 JUMP JUMPDEST DUP1 PUSH2 0x3B8 DUP2 PUSH2 0xF03 JUMP JUMPDEST SWAP2 POP POP PUSH2 0x305 JUMP JUMPDEST POP CALLER PUSH1 0x0 SWAP1 DUP2 MSTORE PUSH1 0x2 PUSH1 0x20 MSTORE PUSH1 0x40 DUP2 KECCAK256 PUSH1 0x1 ADD DUP1 SLOAD DUP4 SWAP1 DUP2 LT PUSH2 0x3E5 JUMPI PUSH2 0x3E5 PUSH2 0xEED JUMP JUMPDEST PUSH1 0x0 SWAP2 DUP3 MSTORE PUSH1 0x20 DUP1 DUP4 KECCAK256 PUSH1 0x2 SWAP3 DUP4 MUL ADD DUP1 SLOAD PUSH1 0x1 PUSH1 0x1 PUSH1 0xA0 SHL SUB NOT AND PUSH1 0x1 PUSH1 0x1 PUSH1 0xA0 SHL SUB SWAP6 SWAP1 SWAP6 AND SWAP5 SWAP1 SWAP5 OR SWAP1 SWAP4 SSTORE CALLER DUP3 MSTORE SWAP1 SWAP2 MSTORE PUSH1 0x40 DUP2 KECCAK256 DUP1 SLOAD SWAP2 PUSH2 0x42A DUP4 PUSH2 0xF1C JUMP JUMPDEST SWAP1 SWAP2 SSTORE POP POP PUSH1 0x0 DUP4 DUP2 MSTORE PUSH1 0x3 PUSH1 0x20 MSTORE PUSH1 0x40 SWAP1 DUP2 SWAP1 KECCAK256 DUP1 SLOAD PUSH1 0x1 PUSH1 0x1 PUSH1 0xA0 SHL SUB NOT AND SWAP1 SSTORE MLOAD PUSH4 0x23B872DD PUSH1 0xE0 SHL DUP2 MSTORE ADDRESS PUSH1 0x4 DUP3 ADD MSTORE CALLER PUSH1 0x24 DUP3 ADD MSTORE PUSH1 0x44 DUP2 ADD DUP5 SWAP1 MSTORE PUSH1 0x1 PUSH1 0x1 PUSH1 0xA0 SHL SUB PUSH32 0x0 AND SWAP1 PUSH4 0x23B872DD SWAP1 PUSH1 0x64 ADD PUSH1 0x0 PUSH1 0x40 MLOAD DUP1 DUP4 SUB DUP2 PUSH1 0x0 DUP8 DUP1 EXTCODESIZE ISZERO DUP1 ISZERO PUSH2 0x4B9 JUMPI PUSH1 0x0 DUP1 REVERT JUMPDEST POP GAS CALL ISZERO DUP1 ISZERO PUSH2 0x4CD JUMPI RETURNDATASIZE PUSH1 0x0 DUP1 RETURNDATACOPY RETURNDATASIZE PUSH1 0x0 REVERT JUMPDEST POP POP CALLER PUSH1 0x0 SWAP1 DUP2 MSTORE PUSH1 0x2 PUSH1 0x20 DUP2 SWAP1 MSTORE PUSH1 0x40 SWAP1 SWAP2 KECCAK256 TIMESTAMP SWAP2 ADD SSTORE POP PUSH2 0x4F3 SWAP3 POP PUSH2 0xB1D SWAP2 POP POP JUMP JUMPDEST POP JUMP JUMPDEST CALLER PUSH1 0x0 DUP2 DUP2 MSTORE PUSH1 0x2 PUSH1 0x20 MSTORE PUSH1 0x40 DUP2 KECCAK256 PUSH1 0x3 ADD SLOAD SWAP1 SWAP2 PUSH2 0x514 SWAP1 PUSH2 0xAC4 JUMP JUMPDEST PUSH2 0x51E SWAP2 SWAP1 PUSH2 0xED5 JUMP JUMPDEST SWAP1 POP PUSH1 0x0 DUP2 GT PUSH2 0x570 JUMPI PUSH1 0x40 MLOAD PUSH3 0x461BCD PUSH1 0xE5 SHL DUP2 MSTORE PUSH1 0x20 PUSH1 0x4 DUP3 ADD MSTORE PUSH1 0x1C PUSH1 0x24 DUP3 ADD MSTORE PUSH32 0x596F752068617665206E6F207265776172647320746F20636C61696D00000000 PUSH1 0x44 DUP3 ADD MSTORE PUSH1 0x64 ADD PUSH2 0x25A JUMP JUMPDEST CALLER PUSH1 0x0 DUP2 DUP2 MSTORE PUSH1 0x2 PUSH1 0x20 DUP2 SWAP1 MSTORE PUSH1 0x40 DUP3 KECCAK256 TIMESTAMP SWAP2 DUP2 ADD SWAP2 SWAP1 SWAP2 SSTORE PUSH1 0x3 ADD SSTORE PUSH2 0x4F3 SWAP1 PUSH32 0x0 PUSH1 0x1 PUSH1 0x1 PUSH1 0xA0 SHL SUB AND SWAP1 DUP4 PUSH2 0xB24 JUMP JUMPDEST PUSH1 0x1 PUSH1 0x1 PUSH1 0xA0 SHL SUB DUP2 AND PUSH1 0x0 SWAP1 DUP2 MSTORE PUSH1 0x2 PUSH1 0x20 MSTORE PUSH1 0x40 SWAP1 KECCAK256 SLOAD PUSH1 0x60 SWAP1 ISZERO PUSH2 0x778 JUMPI PUSH1 0x1 PUSH1 0x1 PUSH1 0xA0 SHL SUB DUP3 AND PUSH1 0x0 SWAP1 DUP2 MSTORE PUSH1 0x2 PUSH1 0x20 MSTORE PUSH1 0x40 DUP2 KECCAK256 SLOAD PUSH8 0xFFFFFFFFFFFFFFFF DUP2 GT ISZERO PUSH2 0x614 JUMPI PUSH2 0x614 PUSH2 0xF33 JUMP JUMPDEST PUSH1 0x40 MLOAD SWAP1 DUP1 DUP3 MSTORE DUP1 PUSH1 0x20 MUL PUSH1 0x20 ADD DUP3 ADD PUSH1 0x40 MSTORE DUP1 ISZERO PUSH2 0x659 JUMPI DUP2 PUSH1 0x20 ADD JUMPDEST PUSH1 0x40 DUP1 MLOAD DUP1 DUP3 ADD SWAP1 SWAP2 MSTORE PUSH1 0x0 DUP1 DUP3 MSTORE PUSH1 0x20 DUP3 ADD MSTORE DUP2 MSTORE PUSH1 0x20 ADD SWAP1 PUSH1 0x1 SWAP1 SUB SWAP1 DUP2 PUSH2 0x632 JUMPI SWAP1 POP JUMPDEST POP SWAP1 POP PUSH1 0x0 DUP1 JUMPDEST PUSH1 0x1 PUSH1 0x1 PUSH1 0xA0 SHL SUB DUP6 AND PUSH1 0x0 SWAP1 DUP2 MSTORE PUSH1 0x2 PUSH1 0x20 MSTORE PUSH1 0x40 SWAP1 KECCAK256 PUSH1 0x1 ADD SLOAD DUP2 LT ISZERO PUSH2 0x76F JUMPI PUSH1 0x1 PUSH1 0x1 PUSH1 0xA0 SHL SUB DUP6 AND PUSH1 0x0 SWAP1 DUP2 MSTORE PUSH1 0x2 PUSH1 0x20 MSTORE PUSH1 0x40 DUP2 KECCAK256 PUSH1 0x1 ADD DUP1 SLOAD DUP4 SWAP1 DUP2 LT PUSH2 0x6B0 JUMPI PUSH2 0x6B0 PUSH2 0xEED JUMP JUMPDEST PUSH1 0x0 SWAP2 DUP3 MSTORE PUSH1 0x20 SWAP1 SWAP2 KECCAK256 PUSH1 0x2 SWAP1 SWAP2 MUL ADD SLOAD PUSH1 0x1 PUSH1 0x1 PUSH1 0xA0 SHL SUB AND EQ PUSH2 0x75D JUMPI PUSH1 0x1 PUSH1 0x1 PUSH1 0xA0 SHL SUB DUP6 AND PUSH1 0x0 SWAP1 DUP2 MSTORE PUSH1 0x2 PUSH1 0x20 MSTORE PUSH1 0x40 SWAP1 KECCAK256 PUSH1 0x1 ADD DUP1 SLOAD DUP3 SWAP1 DUP2 LT PUSH2 0x6FC JUMPI PUSH2 0x6FC PUSH2 0xEED JUMP JUMPDEST PUSH1 0x0 SWAP2 DUP3 MSTORE PUSH1 0x20 SWAP2 DUP3 SWAP1 KECCAK256 PUSH1 0x40 DUP1 MLOAD DUP1 DUP3 ADD SWAP1 SWAP2 MSTORE PUSH1 0x2 SWAP1 SWAP3 MUL ADD DUP1 SLOAD PUSH1 0x1 PUSH1 0x1 PUSH1 0xA0 SHL SUB AND DUP3 MSTORE PUSH1 0x1 ADD SLOAD SWAP2 DUP2 ADD SWAP2 SWAP1 SWAP2 MSTORE DUP4 MLOAD DUP5 SWAP1 DUP5 SWAP1 DUP2 LT PUSH2 0x743 JUMPI PUSH2 0x743 PUSH2 0xEED JUMP JUMPDEST PUSH1 0x20 MUL PUSH1 0x20 ADD ADD DUP2 SWAP1 MSTORE POP DUP2 DUP1 PUSH2 0x759 SWAP1 PUSH2 0xF03 JUMP JUMPDEST SWAP3 POP POP JUMPDEST DUP1 PUSH2 0x767 DUP2 PUSH2 0xF03 JUMP JUMPDEST SWAP2 POP POP PUSH2 0x660 JUMP JUMPDEST POP SWAP1 SWAP4 SWAP3 POP POP POP JUMP JUMPDEST PUSH1 0x40 DUP1 MLOAD PUSH1 0x0 DUP1 DUP3 MSTORE PUSH1 0x20 DUP3 ADD SWAP1 SWAP3 MSTORE SWAP1 PUSH2 0x7B5 JUMP JUMPDEST PUSH1 0x40 DUP1 MLOAD DUP1 DUP3 ADD SWAP1 SWAP2 MSTORE PUSH1 0x0 DUP1 DUP3 MSTORE PUSH1 0x20 DUP3 ADD MSTORE DUP2 MSTORE PUSH1 0x20 ADD SWAP1 PUSH1 0x1 SWAP1 SUB SWAP1 DUP2 PUSH2 0x78E JUMPI SWAP1 POP JUMPDEST POP SWAP3 SWAP2 POP POP JUMP JUMPDEST PUSH2 0x7C4 PUSH2 0xA6B JUMP JUMPDEST CALLER PUSH1 0x0 SWAP1 DUP2 MSTORE PUSH1 0x2 PUSH1 0x20 MSTORE PUSH1 0x40 SWAP1 KECCAK256 SLOAD ISZERO PUSH2 0x812 JUMPI PUSH1 0x0 PUSH2 0x7E4 CALLER PUSH2 0xAC4 JUMP JUMPDEST CALLER PUSH1 0x0 SWAP1 DUP2 MSTORE PUSH1 0x2 PUSH1 0x20 MSTORE PUSH1 0x40 DUP2 KECCAK256 PUSH1 0x3 ADD DUP1 SLOAD SWAP3 SWAP4 POP DUP4 SWAP3 SWAP1 SWAP2 SWAP1 PUSH2 0x80B SWAP1 DUP5 SWAP1 PUSH2 0xED5 JUMP JUMPDEST SWAP1 SWAP2 SSTORE POP POP POP JUMPDEST PUSH1 0x40 MLOAD PUSH4 0x31A9108F PUSH1 0xE1 SHL DUP2 MSTORE PUSH1 0x4 DUP2 ADD DUP3 SWAP1 MSTORE CALLER SWAP1 PUSH1 0x1 PUSH1 0x1 PUSH1 0xA0 SHL SUB PUSH32 0x0 AND SWAP1 PUSH4 0x6352211E SWAP1 PUSH1 0x24 ADD PUSH1 0x20 PUSH1 0x40 MLOAD DUP1 DUP4 SUB DUP2 DUP7 GAS STATICCALL ISZERO DUP1 ISZERO PUSH2 0x879 JUMPI RETURNDATASIZE PUSH1 0x0 DUP1 RETURNDATACOPY RETURNDATASIZE PUSH1 0x0 REVERT JUMPDEST POP POP POP POP PUSH1 0x40 MLOAD RETURNDATASIZE PUSH1 0x1F NOT PUSH1 0x1F DUP3 ADD AND DUP3 ADD DUP1 PUSH1 0x40 MSTORE POP DUP2 ADD SWAP1 PUSH2 0x89D SWAP2 SWAP1 PUSH2 0xF49 JUMP JUMPDEST PUSH1 0x1 PUSH1 0x1 PUSH1 0xA0 SHL SUB AND EQ PUSH2 0x8F3 JUMPI PUSH1 0x40 MLOAD PUSH3 0x461BCD PUSH1 0xE5 SHL DUP2 MSTORE PUSH1 0x20 PUSH1 0x4 DUP3 ADD MSTORE PUSH1 0x19 PUSH1 0x24 DUP3 ADD MSTORE PUSH32 0x596F7520646F6E2774206F776E207468697320746F6B656E2100000000000000 PUSH1 0x44 DUP3 ADD MSTORE PUSH1 0x64 ADD PUSH2 0x25A JUMP JUMPDEST PUSH1 0x40 MLOAD PUSH4 0x23B872DD PUSH1 0xE0 SHL DUP2 MSTORE CALLER PUSH1 0x4 DUP3 ADD MSTORE ADDRESS PUSH1 0x24 DUP3 ADD MSTORE PUSH1 0x44 DUP2 ADD DUP3 SWAP1 MSTORE PUSH32 0x0 PUSH1 0x1 PUSH1 0x1 PUSH1 0xA0 SHL SUB AND SWAP1 PUSH4 0x23B872DD SWAP1 PUSH1 0x64 ADD PUSH1 0x0 PUSH1 0x40 MLOAD DUP1 DUP4 SUB DUP2 PUSH1 0x0 DUP8 DUP1 EXTCODESIZE ISZERO DUP1 ISZERO PUSH2 0x961 JUMPI PUSH1 0x0 DUP1 REVERT JUMPDEST POP GAS CALL ISZERO DUP1 ISZERO PUSH2 0x975 JUMPI RETURNDATASIZE PUSH1 0x0 DUP1 RETURNDATACOPY RETURNDATASIZE PUSH1 0x0 REVERT JUMPDEST POP POP PUSH1 0x40 DUP1 MLOAD DUP1 DUP3 ADD DUP3 MSTORE CALLER DUP1 DUP3 MSTORE PUSH1 0x20 DUP1 DUP4 ADD DUP8 DUP2 MSTORE PUSH1 0x0 DUP4 DUP2 MSTORE PUSH1 0x2 DUP1 DUP5 MSTORE SWAP6 DUP2 KECCAK256 PUSH1 0x1 DUP1 DUP3 ADD DUP1 SLOAD DUP1 DUP4 ADD DUP3 SSTORE SWAP1 DUP5 MSTORE SWAP5 DUP4 KECCAK256 DUP8 MLOAD SWAP6 SWAP1 SWAP9 MUL SWAP1 SWAP8 ADD DUP1 SLOAD PUSH1 0x1 PUSH1 0x1 PUSH1 0xA0 SHL SUB NOT AND PUSH1 0x1 PUSH1 0x1 PUSH1 0xA0 SHL SUB SWAP1 SWAP6 AND SWAP5 SWAP1 SWAP5 OR DUP5 SSTORE SWAP2 MLOAD SWAP3 SWAP1 SWAP6 ADD SWAP2 SWAP1 SWAP2 SSTORE SWAP1 DUP4 MSTORE DUP1 SLOAD SWAP2 SWAP5 POP SWAP1 SWAP3 POP SWAP1 PUSH2 0x9F0 DUP4 PUSH2 0xF03 JUMP JUMPDEST SWAP1 SWAP2 SSTORE POP POP POP PUSH1 0x0 DUP2 DUP2 MSTORE PUSH1 0x3 PUSH1 0x20 SWAP1 DUP2 MSTORE PUSH1 0x40 DUP1 DUP4 KECCAK256 DUP1 SLOAD PUSH1 0x1 PUSH1 0x1 PUSH1 0xA0 SHL SUB NOT AND CALLER SWAP1 DUP2 OR SWAP1 SWAP2 SSTORE DUP4 MSTORE PUSH1 0x2 SWAP2 DUP3 SWAP1 MSTORE SWAP1 SWAP2 KECCAK256 TIMESTAMP SWAP2 ADD SSTORE PUSH2 0x4F3 PUSH1 0x1 PUSH1 0x0 SSTORE JUMP JUMPDEST PUSH1 0x1 PUSH1 0x1 PUSH1 0xA0 SHL SUB DUP2 AND PUSH1 0x0 SWAP1 DUP2 MSTORE PUSH1 0x2 PUSH1 0x20 MSTORE PUSH1 0x40 DUP2 KECCAK256 PUSH1 0x3 ADD SLOAD DUP2 SWAP1 PUSH2 0xA5A DUP5 PUSH2 0xAC4 JUMP JUMPDEST PUSH2 0xA64 SWAP2 SWAP1 PUSH2 0xED5 JUMP JUMPDEST SWAP4 SWAP3 POP POP POP JUMP JUMPDEST PUSH1 0x2 PUSH1 0x0 SLOAD SUB PUSH2 0xABD JUMPI PUSH1 0x40 MLOAD PUSH3 0x461BCD PUSH1 0xE5 SHL DUP2 MSTORE PUSH1 0x20 PUSH1 0x4 DUP3 ADD MSTORE PUSH1 0x1F PUSH1 0x24 DUP3 ADD MSTORE PUSH32 0x5265656E7472616E637947756172643A207265656E7472616E742063616C6C00 PUSH1 0x44 DUP3 ADD MSTORE PUSH1 0x64 ADD PUSH2 0x25A JUMP JUMPDEST PUSH1 0x2 PUSH1 0x0 SSTORE JUMP JUMPDEST PUSH1 0x1 SLOAD PUSH1 0x1 PUSH1 0x1 PUSH1 0xA0 SHL SUB DUP3 AND PUSH1 0x0 SWAP1 DUP2 MSTORE PUSH1 0x2 PUSH1 0x20 DUP2 SWAP1 MSTORE PUSH1 0x40 DUP3 KECCAK256 DUP1 SLOAD SWAP2 ADD SLOAD SWAP2 SWAP3 PUSH2 0xE10 SWAP3 SWAP1 SWAP2 SWAP1 PUSH2 0xAF9 SWAP1 TIMESTAMP PUSH2 0xF66 JUMP JUMPDEST PUSH2 0xB03 SWAP2 SWAP1 PUSH2 0xF7D JUMP JUMPDEST PUSH2 0xB0D SWAP2 SWAP1 PUSH2 0xF7D JUMP JUMPDEST PUSH2 0xB17 SWAP2 SWAP1 PUSH2 0xF9C JUMP JUMPDEST SWAP3 SWAP2 POP POP JUMP JUMPDEST PUSH1 0x1 PUSH1 0x0 SSTORE JUMP JUMPDEST PUSH1 0x40 DUP1 MLOAD PUSH1 0x1 PUSH1 0x1 PUSH1 0xA0 SHL SUB DUP5 AND PUSH1 0x24 DUP3 ADD MSTORE PUSH1 0x44 DUP1 DUP3 ADD DUP5 SWAP1 MSTORE DUP3 MLOAD DUP1 DUP4 SUB SWAP1 SWAP2 ADD DUP2 MSTORE PUSH1 0x64 SWAP1 SWAP2 ADD SWAP1 SWAP2 MSTORE PUSH1 0x20 DUP2 ADD DUP1 MLOAD PUSH28 0xFFFFFFFFFFFFFFFFFFFFFFFFFFFFFFFFFFFFFFFFFFFFFFFFFFFFFFFF AND PUSH4 0xA9059CBB PUSH1 0xE0 SHL OR SWAP1 MSTORE PUSH2 0xB8B SWAP1 DUP5 SWAP1 PUSH2 0xB90 JUMP JUMPDEST POP POP POP JUMP JUMPDEST PUSH1 0x0 PUSH2 0xBE5 DUP3 PUSH1 0x40 MLOAD DUP1 PUSH1 0x40 ADD PUSH1 0x40 MSTORE DUP1 PUSH1 0x20 DUP2 MSTORE PUSH1 0x20 ADD PUSH32 0x5361666545524332303A206C6F772D6C6576656C2063616C6C206661696C6564 DUP2 MSTORE POP DUP6 PUSH1 0x1 PUSH1 0x1 PUSH1 0xA0 SHL SUB AND PUSH2 0xC75 SWAP1 SWAP3 SWAP2 SWAP1 PUSH4 0xFFFFFFFF AND JUMP JUMPDEST DUP1 MLOAD SWAP1 SWAP2 POP ISZERO PUSH2 0xB8B JUMPI DUP1 DUP1 PUSH1 0x20 ADD SWAP1 MLOAD DUP2 ADD SWAP1 PUSH2 0xC03 SWAP2 SWAP1 PUSH2 0xFBE JUMP JUMPDEST PUSH2 0xB8B JUMPI PUSH1 0x40 MLOAD PUSH3 0x461BCD PUSH1 0xE5 SHL DUP2 MSTORE PUSH1 0x20 PUSH1 0x4 DUP3 ADD MSTORE PUSH1 0x2A PUSH1 0x24 DUP3 ADD MSTORE PUSH32 0x5361666545524332303A204552433230206F7065726174696F6E20646964206E PUSH1 0x44 DUP3 ADD MSTORE PUSH32 0x6F74207375636365656400000000000000000000000000000000000000000000 PUSH1 0x64 DUP3 ADD MSTORE PUSH1 0x84 ADD PUSH2 0x25A JUMP JUMPDEST PUSH1 0x60 PUSH2 0xC84 DUP5 DUP5 PUSH1 0x0 DUP6 PUSH2 0xC8C JUMP JUMPDEST SWAP5 SWAP4 POP POP POP POP JUMP JUMPDEST PUSH1 0x60 DUP3 SELFBALANCE LT ISZERO PUSH2 0xD04 JUMPI PUSH1 0x40 MLOAD PUSH3 0x461BCD PUSH1 0xE5 SHL DUP2 MSTORE PUSH1 0x20 PUSH1 0x4 DUP3 ADD MSTORE PUSH1 0x26 PUSH1 0x24 DUP3 ADD MSTORE PUSH32 0x416464726573733A20696E73756666696369656E742062616C616E636520666F PUSH1 0x44 DUP3 ADD MSTORE PUSH32 0x722063616C6C0000000000000000000000000000000000000000000000000000 PUSH1 0x64 DUP3 ADD MSTORE PUSH1 0x84 ADD PUSH2 0x25A JUMP JUMPDEST PUSH1 0x0 DUP1 DUP7 PUSH1 0x1 PUSH1 0x1 PUSH1 0xA0 SHL SUB AND DUP6 DUP8 PUSH1 0x40 MLOAD PUSH2 0xD20 SWAP2 SWAP1 PUSH2 0x1010 JUMP JUMPDEST PUSH1 0x0 PUSH1 0x40 MLOAD DUP1 DUP4 SUB DUP2 DUP6 DUP8 GAS CALL SWAP3 POP POP POP RETURNDATASIZE DUP1 PUSH1 0x0 DUP2 EQ PUSH2 0xD5D JUMPI PUSH1 0x40 MLOAD SWAP2 POP PUSH1 0x1F NOT PUSH1 0x3F RETURNDATASIZE ADD AND DUP3 ADD PUSH1 0x40 MSTORE RETURNDATASIZE DUP3 MSTORE RETURNDATASIZE PUSH1 0x0 PUSH1 0x20 DUP5 ADD RETURNDATACOPY PUSH2 0xD62 JUMP JUMPDEST PUSH1 0x60 SWAP2 POP JUMPDEST POP SWAP2 POP SWAP2 POP PUSH2 0xD73 DUP8 DUP4 DUP4 DUP8 PUSH2 0xD7E JUMP JUMPDEST SWAP8 SWAP7 POP POP POP POP POP POP POP JUMP JUMPDEST PUSH1 0x60 DUP4 ISZERO PUSH2 0xDED JUMPI DUP3 MLOAD PUSH1 0x0 SUB PUSH2 0xDE6 JUMPI PUSH1 0x1 PUSH1 0x1 PUSH1 0xA0 SHL SUB DUP6 AND EXTCODESIZE PUSH2 0xDE6 JUMPI PUSH1 0x40 MLOAD PUSH3 0x461BCD PUSH1 0xE5 SHL DUP2 MSTORE PUSH1 0x20 PUSH1 0x4 DUP3 ADD MSTORE PUSH1 0x1D PUSH1 0x24 DUP3 ADD MSTORE PUSH32 0x416464726573733A2063616C6C20746F206E6F6E2D636F6E7472616374000000 PUSH1 0x44 DUP3 ADD MSTORE PUSH1 0x64 ADD PUSH2 0x25A JUMP JUMPDEST POP DUP2 PUSH2 0xC84 JUMP JUMPDEST PUSH2 0xC84 DUP4 DUP4 DUP2 MLOAD ISZERO PUSH2 0xE02 JUMPI DUP2 MLOAD DUP1 DUP4 PUSH1 0x20 ADD REVERT JUMPDEST DUP1 PUSH1 0x40 MLOAD PUSH3 0x461BCD PUSH1 0xE5 SHL DUP2 MSTORE PUSH1 0x4 ADD PUSH2 0x25A SWAP2 SWAP1 PUSH2 0x102C JUMP JUMPDEST PUSH1 0x0 PUSH1 0x20 DUP3 DUP5 SUB SLT ISZERO PUSH2 0xE2E JUMPI PUSH1 0x0 DUP1 REVERT JUMPDEST POP CALLDATALOAD SWAP2 SWAP1 POP JUMP JUMPDEST PUSH1 0x1 PUSH1 0x1 PUSH1 0xA0 SHL SUB DUP2 AND DUP2 EQ PUSH2 0x4F3 JUMPI PUSH1 0x0 DUP1 REVERT JUMPDEST PUSH1 0x0 PUSH1 0x20 DUP3 DUP5 SUB SLT ISZERO PUSH2 0xE5C JUMPI PUSH1 0x0 DUP1 REVERT JUMPDEST DUP2 CALLDATALOAD PUSH2 0xA64 DUP2 PUSH2 0xE35 JUMP JUMPDEST PUSH1 0x20 DUP1 DUP3 MSTORE DUP3 MLOAD DUP3 DUP3 ADD DUP2 SWAP1 MSTORE PUSH1 0x0 SWAP2 SWAP1 PUSH1 0x40 SWAP1 DUP2 DUP6 ADD SWAP1 DUP7 DUP5 ADD DUP6 JUMPDEST DUP3 DUP2 LT ISZERO PUSH2 0xEB2 JUMPI DUP2 MLOAD DUP1 MLOAD PUSH1 0x1 PUSH1 0x1 PUSH1 0xA0 SHL SUB AND DUP6 MSTORE DUP7 ADD MLOAD DUP7 DUP6 ADD MSTORE SWAP3 DUP5 ADD SWAP3 SWAP1 DUP6 ADD SWAP1 PUSH1 0x1 ADD PUSH2 0xE84 JUMP JUMPDEST POP SWAP2 SWAP8 SWAP7 POP POP POP POP POP POP POP JUMP JUMPDEST PUSH4 0x4E487B71 PUSH1 0xE0 SHL PUSH1 0x0 MSTORE PUSH1 0x11 PUSH1 0x4 MSTORE PUSH1 0x24 PUSH1 0x0 REVERT JUMPDEST PUSH1 0x0 DUP3 NOT DUP3 GT ISZERO PUSH2 0xEE8 JUMPI PUSH2 0xEE8 PUSH2 0xEBF JUMP JUMPDEST POP ADD SWAP1 JUMP JUMPDEST PUSH4 0x4E487B71 PUSH1 0xE0 SHL PUSH1 0x0 MSTORE PUSH1 0x32 PUSH1 0x4 MSTORE PUSH1 0x24 PUSH1 0x0 REVERT JUMPDEST PUSH1 0x0 PUSH1 0x1 DUP3 ADD PUSH2 0xF15 JUMPI PUSH2 0xF15 PUSH2 0xEBF JUMP JUMPDEST POP PUSH1 0x1 ADD SWAP1 JUMP JUMPDEST PUSH1 0x0 DUP2 PUSH2 0xF2B JUMPI PUSH2 0xF2B PUSH2 0xEBF JUMP JUMPDEST POP PUSH1 0x0 NOT ADD SWAP1 JUMP JUMPDEST PUSH4 0x4E487B71 PUSH1 0xE0 SHL PUSH1 0x0 MSTORE PUSH1 0x41 PUSH1 0x4 MSTORE PUSH1 0x24 PUSH1 0x0 REVERT JUMPDEST PUSH1 0x0 PUSH1 0x20 DUP3 DUP5 SUB SLT ISZERO PUSH2 0xF5B JUMPI PUSH1 0x0 DUP1 REVERT JUMPDEST DUP2 MLOAD PUSH2 0xA64 DUP2 PUSH2 0xE35 JUMP JUMPDEST PUSH1 0x0 DUP3 DUP3 LT ISZERO PUSH2 0xF78 JUMPI PUSH2 0xF78 PUSH2 0xEBF JUMP JUMPDEST POP SUB SWAP1 JUMP JUMPDEST PUSH1 0x0 DUP2 PUSH1 0x0 NOT DIV DUP4 GT DUP3 ISZERO ISZERO AND ISZERO PUSH2 0xF97 JUMPI PUSH2 0xF97 PUSH2 0xEBF JUMP JUMPDEST POP MUL SWAP1 JUMP JUMPDEST PUSH1 0x0 DUP3 PUSH2 0xFB9 JUMPI PUSH4 0x4E487B71 PUSH1 0xE0 SHL PUSH1 0x0 MSTORE PUSH1 0x12 PUSH1 0x4 MSTORE PUSH1 0x24 PUSH1 0x0 REVERT JUMPDEST POP DIV SWAP1 JUMP JUMPDEST PUSH1 0x0 PUSH1 0x20 DUP3 DUP5 SUB SLT ISZERO PUSH2 0xFD0 JUMPI PUSH1 0x0 DUP1 REVERT JUMPDEST DUP2 MLOAD DUP1 ISZERO ISZERO DUP2 EQ PUSH2 0xA64 JUMPI PUSH1 0x0 DUP1 REVERT JUMPDEST PUSH1 0x0 JUMPDEST DUP4 DUP2 LT ISZERO PUSH2 0xFFB JUMPI DUP2 DUP2 ADD MLOAD DUP4 DUP3 ADD MSTORE PUSH1 0x20 ADD PUSH2 0xFE3 JUMP JUMPDEST DUP4 DUP2 GT ISZERO PUSH2 0x100A JUMPI PUSH1 0x0 DUP5 DUP5 ADD MSTORE JUMPDEST POP POP POP POP JUMP JUMPDEST PUSH1 0x0 DUP3 MLOAD PUSH2 0x1022 DUP2 DUP5 PUSH1 0x20 DUP8 ADD PUSH2 0xFE0 JUMP JUMPDEST SWAP2 SWAP1 SWAP2 ADD SWAP3 SWAP2 POP POP JUMP JUMPDEST PUSH1 0x20 DUP2 MSTORE PUSH1 0x0 DUP3 MLOAD DUP1 PUSH1 0x20 DUP5 ADD MSTORE PUSH2 0x104B DUP2 PUSH1 0x40 DUP6 ADD PUSH1 0x20 DUP8 ADD PUSH2 0xFE0 JUMP JUMPDEST PUSH1 0x1F ADD PUSH1 0x1F NOT AND SWAP2 SWAP1 SWAP2 ADD PUSH1 0x40 ADD SWAP3 SWAP2 POP POP JUMP INVALID LOG2 PUSH5 0x6970667358 0x22 SLT KECCAK256 SELFBALANCE 0x5F ISZERO PC 0xE4 0xD3 DUP4 0xCC 0xE2 0xD1 0xBE 0xA7 0xE2 SWAP16 0x23 DUP16 0x23 PUSH9 0xB4BA064897D92CAC57 0xEF 0x23 PUSH3 0xA25D64 PUSH20 0x6F6C634300080D00330000000000000000000000 "
    },
    "gasEstimates": {
      "creation": {
        "codeDepositCost": "849000",
        "executionCost": "infinite",
        "totalCost": "infinite"
      },
      "external": {
        "availableRewards(address)": "infinite",
        "claimRewards()": "infinite",
        "getStakedTokens(address)": "infinite",
        "nftCollection()": "infinite",
        "rewardsToken()": "infinite",
        "stake(uint256)": "infinite",
        "stakerAddress(uint256)": "2522",
        "stakers(address)": "6811",
        "withdraw(uint256)": "infinite"
      },
      "internal": {
        "calculateRewards(address)": "infinite"
      }
    },
    "methodIdentifiers": {
      "availableRewards(address)": "f854a27f",
      "claimRewards()": "372500ab",
      "getStakedTokens(address)": "63c28db1",
      "nftCollection()": "6588103b",
      "rewardsToken()": "d1af0c7d",
      "stake(uint256)": "a694fc3a",
      "stakerAddress(uint256)": "94067045",
      "stakers(address)": "9168ae72",
      "withdraw(uint256)": "2e1a7d4d"
    }
  },
  "storageLayout": {
    "storage": [
      {
        "astId": 510,
        "contract": "StakingContract.sol:ERC721Staking",
        "label": "_status",
        "offset": 0,
        "slot": "0",
        "type": "t_uint256"
      },
      {
        "astId": 54,
        "contract": "StakingContract.sol:ERC721Staking",
        "label": "rewardsPerHour",
        "offset": 0,
        "slot": "1",
        "type": "t_uint256"
      },
      {
        "astId": 59,
        "contract": "StakingContract.sol:ERC721Staking",
        "label": "stakers",
        "offset": 0,
        "slot": "2",
        "type": "t_mapping(t_address,t_struct(Staker)51_storage)"
      },
      {
        "astId": 63,
        "contract": "StakingContract.sol:ERC721Staking",
        "label": "stakerAddress",
        "offset": 0,
        "slot": "3",
        "type": "t_mapping(t_uint256,t_address)"
      }
    ],
    "types": {
      "t_address": {
        "encoding": "inplace",
        "label": "address",
        "numberOfBytes": "20"
      },
      "t_array(t_struct(StakedToken)40_storage)dyn_storage": {
        "base": "t_struct(StakedToken)40_storage",
        "encoding": "dynamic_array",
        "label": "struct ERC721Staking.StakedToken[]",
        "numberOfBytes": "32"
      },
      "t_mapping(t_address,t_struct(Staker)51_storage)": {
        "encoding": "mapping",
        "key": "t_address",
        "label": "mapping(address => struct ERC721Staking.Staker)",
        "numberOfBytes": "32",
        "value": "t_struct(Staker)51_storage"
      },
      "t_mapping(t_uint256,t_address)": {
        "encoding": "mapping",
        "key": "t_uint256",
        "label": "mapping(uint256 => address)",
        "numberOfBytes": "32",
        "value": "t_address"
      },
      "t_struct(StakedToken)40_storage": {
        "encoding": "inplace",
        "label": "struct ERC721Staking.StakedToken",
        "members": [
          {
            "astId": 37,
            "contract": "StakingContract.sol:ERC721Staking",
            "label": "staker",
            "offset": 0,
            "slot": "0",
            "type": "t_address"
          },
          {
            "astId": 39,
            "contract": "StakingContract.sol:ERC721Staking",
            "label": "tokenId",
            "offset": 0,
            "slot": "1",
            "type": "t_uint256"
          }
        ],
        "numberOfBytes": "64"
      },
      "t_struct(Staker)51_storage": {
        "encoding": "inplace",
        "label": "struct ERC721Staking.Staker",
        "members": [
          {
            "astId": 42,
            "contract": "StakingContract.sol:ERC721Staking",
            "label": "amountStaked",
            "offset": 0,
            "slot": "0",
            "type": "t_uint256"
          },
          {
            "astId": 46,
            "contract": "StakingContract.sol:ERC721Staking",
            "label": "stakedTokens",
            "offset": 0,
            "slot": "1",
            "type": "t_array(t_struct(StakedToken)40_storage)dyn_storage"
          },
          {
            "astId": 48,
            "contract": "StakingContract.sol:ERC721Staking",
            "label": "timeOfLastUpdate",
            "offset": 0,
            "slot": "2",
            "type": "t_uint256"
          },
          {
            "astId": 50,
            "contract": "StakingContract.sol:ERC721Staking",
            "label": "unclaimedRewards",
            "offset": 0,
            "slot": "3",
            "type": "t_uint256"
          }
        ],
        "numberOfBytes": "128"
      },
      "t_uint256": {
        "encoding": "inplace",
        "label": "uint256",
        "numberOfBytes": "32"
      }
    }
  },
  "userdoc": {
    "kind": "user",
    "methods": {},
    "version": 1
  }
}